S01300004D696E6950726F6A6563742E73726563AD
S11300000C94ED000C941E010C941E010C941E0122
S11300100C941E010C941E010C941E010C941E01E0
S11300200C941E010C941E010C941E010C941E01D0
S11300300C941E010C941E010C94E7210C941E01D7
S11300400C94B3210C941E010C941E010C941E01FB
S11300500C944F220C941E010C941B220C941E0130
S11300600C941E010C941E010C941E010C941E0190
S11300700C941E010C941E010C941E010C94521637
S11300800C94F8160C941E010C941E010C94BB11D4
S11300900C941E010C941E010C941E010C941E0160
S11300A00C941E010C941E010C941E010C941E0150
S11300B00C9409270C941E010C941E010C941E012F
S11300C00C941E010C941E010C941E010C941E0130
S11300D00C941E010C941E010C941E010C941E0120
S11300E00C941E010C941E010C941E010C941E0110
S11300F00C941E010C941E010C941E010C941E0100
S11301000C941E010C941E010C941E010C941E01EF
S11301100C941E010C941E010C941E010C941E01DF
S11301200C941E010C941E010C941E010C94271FA8
S11301300C941E010C941E010C941E010C941E01BF
S11301400C941E018E1B911B941B971B9A1B9D1BC9
S1130150A01BFE1D1D1E3C1E5B1E7A1E991EB81E92
S1130160D71E0C94CC050C947A1E0C948E1B0C9404
S1130170FE1D0C94EC050C94991E0C941A050C9419
S11301808E060C943C1E0C9422260C94971B0C9403
S11301909A1B0C941D1E0C94A9030C94BC050C947E
S11301A0A01B0C94AA0C0C9426050C94911B0C9483
S11301B0941B0C942F260C948D040C94FB060C9425
S11301C0D71E0C945B1E0C943B050C949D1B0C9445
S11301D0B81E0C94C40522262F2611241FBECFEF6F
S11301E0CDBFDFE3DEBF00E00CBF10E2A0E0B0E271
S11301F0E6EBF1E500E00BBF02C007900D92A63DCF
S1130200B107D9F723E2A6EDB0E201C01D92AD37E4
S1130210B207E1F710E0CCEED0E000E006C0219791
S11302200109802FFE010E948028CB3ED10780E087
S11302300807A9F70E943F240C94C9280C940000D5
S1130240CF93DF931F92CDB7DEB78FE390E0FC012D
S113025080818983F89489810F90DF91CF910895EB
S1130260CF93DF931F92CDB7DEB789838FE390E0FE
S11302702981FC0120830F90DF91CF910895CF93C2
S1130280DF931F921F92CDB7DEB78A830E942001AD
S1130290898380E590E020E530E0F90130812A810E
S11302A0232BFC01208389810E9430010F900F9041
S11302B0DF91CF910895CF93DF931F92CDB7DEB72F
S11302C089830F90DF91CF910895CF93DF931F928D
S11302D01F92CDB7DEB78A830E942001898380E50F
S11302E090E020E530E0F9012081322F2A81209529
S11302F02323FC01208389810E9430010F900F90F9
S1130300DF91CF910895CF93DF931F92CDB7DEB7DE
S113031089838981883021F089810E943F0103C04B
S113032089810E945B010F90DF91CF910895CF9353
S1130330DF931F92CDB7DEB7898380E590E0FC019F
S113034091818981982381E0992309F480E00F90B9
S1130350DF91CF910895CF93DF9300D0CDB7DEB76F
S11303608A836B830E94200189838A81882F90E08D
S11303708130910519F0029721F168C08B81883092
S113038069F484E00E94830180E590E020E530E098
S1130390F90126812160FC01268309C080E590E0F3
S11303A020E530E0F90126812E7FFC01268388E6D2
S11303B090E028E630E0F90120812160FC012083EF
S11303C045C080E590E020E530E0F9012681297FF1
S11303D0FC0126838B81883069F484E00E948301C8
S11303E080E590E020E530E0F90126812260FC01FF
S11303F0268322C08B81843049F480E590E020E597
S113040030E0F9012681FC01268316C08B818F3FE1
S113041099F480E690E020E8FC01258380E690E0F2
S11304202BEBFC01268380E590E020E530E0F90128
S113043026812460FC01268380E690E020E630E0FB
S1130440F90120812160FC012083000089810E9440
S113045030012396CDBFDEBFDF91CF910895CF93B6
S1130460DF9300D0CDB7DEB789836A837B8389812C
S1130470882F90E08130910519F0029781F01EC019
S113048088E690E09E012E5F3F4FF9012081FC0138
S1130490228388E690E02B81FC0123830FC080E651
S11304A090E09E012E5F3F4FF9012081FC012283E1
S11304B080E690E02B81FC01238300002396CDBFCE
S11304C0DEBFDF91CF910895CF93DF931F92CDB715
S11304D0DEB78983000089810E949701982F81E00B
S11304E089278823C1F70F90DF91CF910895CF9387
S11304F0DF931F921F92CDB7DEB789836A839981F8
S11305008A81892B682F81E490E00E94B5110F90B5
S11305100F90DF91CF910895CF93DF931F92CDB7C2
S1130520DEB789838981882F90E08A309105B1F004
S11305308B30910534F48230910581F0049739F0C1
S113054014C08C30910519F00E9741F00EC084E070
S11305500E94830184E00E94640207C088E00E9434
S1130560830188E00E946402000080E490E0298115
S11305702160FC0123830F90DF91CF910895CF93E5
S1130580DF931F92CDB7DEB789838981882F90E0EE
S1130590BC0182E00E943B120F90DF91CF9108953D
S11305A00F931F93CF93DF9300D000D0CDB7DEB766
S11305B080E790E089839A831C821B820DC0898125
S11305C09A819C012F5F3F4F29833A832FEFFC01CF
S11305D020838B818F5F8B838B81873080F360E0F6
S11305E084E00E9477028E010B5F1F4F0F5F1F4F45
S11305F08CE10E94BF02F80180838E010B5F1F4FC4
S11306008DE10E94BF02F80180838D819E81019655
S113061021F480E493E28D839E838D819E81BC01CD
S113062082E00E942F0282E00E94830182E00E9405
S113063064026FEF82E00E94AB01000061E080E49D
S113064090E00E94B5118C81882319F481E00E9406
S1130650650180E00E948C022696CDBFDEBFDF914B
S1130660CF911F910F910895CF93DF9300D0CDB711
S1130670DEB78A836B830E94200189838A81882F55
S113068090E080599F4F2A81222F30E020593F4F1C
S1130690F9012081322F2B8120952323FC01208313
S11306A089810E9430012396CDBFDEBFDF91CF91B7
S11306B00895CF93DF931F921F92CDB7DEB78A833D
S11306C08A81863019F488E1898301C0198282E025
S11306D00E949701982F81E08927882351F082E0B6
S11306E00E94830182E00E9464026FEF82E00E9414
S11306F0AB0189818360682F84E490E00E94B51186
S1130700000060E480E00E9434030F900F90DF91BA
S1130710CF910895CF93DF931F92CDB7DEB78FE3C8
S113072090E0FC0180818983F89489810F90DF91A6
S1130730CF910895CF93DF931F92CDB7DEB789830E
S11307408FE390E02981FC0120830F90DF91CF910A
S11307500895CF93DF931F921F92CDB7DEB71A820D
S11307601092EA208A81882F90E0880F991F825284
S11307709F4DFC01108211828A81882F90E0880F9E
S1130780991F9C01220F331F220F331F820F931FC7
S113079080529F4D21EAFC0120838A81882F90E0BA
S11307A0880F991F9C01220F331F220F331F820FC2
S11307B0931F8F519F4D20E2FC0120838A81882F53
S11307C090E0880F991F9C01220F331F220F331FC3
S11307D0820F931F8E519F4DFC01108211828A81DA
S11307E0882F90E0892B11F4198202C0198200002D
S11307F08A81882F90E02981222F30E0880F991F69
S1130800AC01440F551F440F551F840F951F8C5185
S11308109F4DFC01208331838A81882F90E0880FCB
S1130820991F9C01220F331F220F331F820F931F26
S11308308A519F4D22E030E0FC01208331838A817C
S1130840882F90E0880F991F9C01220F331F220FDD
S1130850331F820F931F88519F4DFC011082118218
S11308608A81282F30E0C901880F991F880F991FAA
S1130870880F991F821B930B9C012A523F4D80E0E5
S113088092ECA1E0B0E0F90180839183A283B38369
S11308908A81282F30E0C901880F991F880F991F7A
S11308A0880F991F821B930B86529F4DFC01108267
S11308B08A81282F30E0C901880F991F880F991F5A
S11308C0880F991F821B930B85529F4DFC01108248
S11308D08A81282F30E0C901880F991F880F991F3A
S11308E0880F991F821B930B84529F4D28E0FC01B3
S11308F020830E94A225982F81E08927882311F064
S113090080E006C08091EA208F5F8093EA2081E036
S11309100F900F90DF91CF910895CF93DF931F92A3
S1130920CDB7DEB719821092EB208981882F90E031
S113093083509E4DFC0110828981882F90E0825063
S11309409E4DFC0110828981882F90E086509E4D37
S1130950FC0110828981882F90E0880F991F880FED
S1130960991F8A509E4DFC01108211828981882F23
S113097090E0880F991F880F991F88509E4DFC01A5
S1130980108211828981882F90E0880F991F8550E9
S11309909E4DFC011082118289810E944607898143
S11309A0882F90E08B589E4DFC0110828981882FFE
S11309B090E08E589E4DFC0110828981882F90E032
S11309C0880F991F880F991F82599E4DFC01108230
S11309D011828981882F90E0880F991F880F991FB1
S11309E080599E4DFC01108211828981882F90E0EC
S11309F0880F991F8D589E4DFC01108211828981A8
S1130A000E94F805982F81E08927882311F080E05F
S1130A100DC08091EB208F5F8093EB208091EB20C1
S1130A20813019F481E08093EC2081E00F90DF9114
S1130A30CF910895CF93DF93CDB7DEB78091EA20AD
S1130A4081508093EA20DF91CF910895CF93DF9373
S1130A501F92CDB7DEB78091EB2081508093EB20BD
S1130A608091EB2089830E94AD251092EC200F9099
S1130A70DF91CF910895CF93DF931F92CDB7DEB767
S1130A800E94D705898380916D23882384F5809102
S1130A906D23882F90E080769927809741F5809187
S1130AA06E23882F90E0819711F5809173239091A4
S1130AB07423079711F080E05BC08981282F30E010
S1130AC0C901880F991F880F991F880F991F821BCE
S1130AD0930B8A529F4D809375239093762387E0DE
S1130AE090E0809377239093782381E041C08091B4
S1130AF06D238823E4F180916D23882F90E0807624
S1130B0099278097A1F580916E23882F90E08032F9
S1130B10910519F0829749F12AC08091732390912D
S1130B207423079711F080E023C08CEE95E0809346
S1130B30792390937A238981282F30E0C901880F83
S1130B40991F880F991F880F991F821B930B8A5234
S1130B509F4D809375239093762387E090E0809354
S1130B6077239093782381E003C081E001C080E083
S1130B700F90DF91CF910895CF93DF93CDB7DEB778
S1130B8080E0DF91CF910895CF93DF93CDB7DEB7A7
S1130B9080E0DF91CF910895CF93DF93CDB7DEB797
S1130BA08091FF210E944607DF91CF910895CF9352
S1130BB0DF931F92CDB7DEB780917123909172239A
S1130BC09927892B11F4198202C0198200008981A6
S1130BD00F90DF91CF910895CF93DF931F92CDB7FC
S1130BE0DEB70E94D70589830F90DF91CF910895D6
S1130BF00F931F93CF93DF9300D01F92CDB7DEB72F
S1130C008C831C820E948A038A838C81882F90E0C3
S1130C108E589E4DFC0180818B838C81882F90E0BF
S1130C208B589E4DFC0180818823F1F48C81882FA0
S1130C3090E0880F991F8D589E4DFC0120813181D1
S1130C408C81482F50E08B81882F90E0440F551FF2
S1130C50840F951F880F991F82599E4DFC01808136
S1130C6091812817390728F48A810E949A0380E029
S1130C704DC08C81882F90E0880F991F8D589E4D10
S1130C80FC01108211828C81882F90E021E03B814D
S1130C90332309F020E08E589E4DFC0120838C8183
S1130CA0882F90E08B589E4D21E0FC0120838A819F
S1130CB00E949A038C810E94B8088C81882F90E04E
S1130CC0892B19F482E0898303C082E089830000C0
S1130CD08C81282F30E08B81882F90E0220F331FE6
S1130CE0820F931F00249695879507949695879570
S1130CF00794982F802D82519F4D0EE816E020E432
S1130D0030E0AC0161E089810E9436152496CDBFA4
S1130D10DEBFDF91CF911F910F9108950F931F9321
S1130D20CF93DF9300D000D0CDB7DEB78B836C8335
S1130D307D834E838E81882F90E0029711F419826F
S1130D4002C0198200008B81882309F04CC089817C
S1130D50882F90E08E589E4DFC01908181E099236C
S1130D6009F080E08A838C819D81892BF9F4898143
S1130D70282F30E08A81882F90E0220F331F820FC2
S1130D80931F0024969587950794969587950794C5
S1130D90982F802D82519F4D0EE816E020E430E01C
S1130DA0AC0161E08E810E9436151DC08981282F17
S1130DB030E08A81882F90E0220F331F820F931F27
S1130DC0880F991F82599E4D2C813D81FC012083FF
S1130DD031838981882F90E08B589E4DFC011082CD
S1130DE089810E94F8052696CDBFDEBFDF91CF91A1
S1130DF01F910F910895CF93DF93CDB7DEB7259759
S1130E00CDBFDEBF8A836B837C834D838D81882F26
S1130E1090E08138910511F4198202C01982000012
S1130E208A81882309F02CC08981282F30E08981A8
S1130E30882F90E086509E4DFC01908181E099239B
S1130E4009F080E0882F90E0220F331F820F931F58
S1130E50880F991F8A509E4DFC011082118289814E
S1130E60882F90E082509E4DFC0110828981882F4A
S1130E7090E083509E4DFC01108289810E944607B8
S1130E802596CDBFDEBFDF91CF9108950F931F93B9
S1130E90CF93DF93CDB7DEB72597CDBFDEBF8D836C
S1130EA01D828D81882F90E083509E4DFC018081AE
S1130EB0882309F014C10E94FA13882381F08D81DC
S1130EC0882F90E0880F991F85509E4DFC0100816A
S1130ED011810E9427140817190789F400C18D8114
S1130EE0882F90E0880F991F85509E4DFC0100814A
S1130EF011810E941C140817190709F4F0C00E94FC
S1130F008A038B838D81882F90E086509E4DFC014F
S1130F10808189838D81282F30E08981882F90E01A
S1130F20220F331F820F931F880F991F8A509E4DE3
S1130F30FC0180819181892B31F58091002290916F
S1130F400122019680930022909301220E94FA13B9
S1130F50982F81E08927882339F08091002290918D
S1130F6001228436910558F00E94FA13882359F01F
S1130F7080910022909101228032934020F48B8151
S1130F800E949A03ACC010920022109201228D811B
S1130F90882F90E082509E4DFC01908181E089274A
S1130FA0882369F08D81882F90E021E039813323F3
S1130FB009F020E086509E4DFC01208306C081E0AC
S1130FC09981992309F080E089838D81882F90E0AD
S1130FD083509E4D21E0FC0120838B810E949A0363
S1130FE08D81282F30E08981882F90E0220F331FD4
S1130FF0820F931F880F991F8A509E4DFC01808198
S1131000918121E08034910509F420E02C838C81C6
S1131010882311F10E94FA13882379F08D81082F17
S113102010E00E9427149C01C801880F991F855065
S11310309E4DFC012083318319C08D81082F10E05F
S11310400E941C149C01C801880F991F85509E4D55
S1131050FC01208331830AC08D81882F90E0880FA2
S1131060991F85509E4DFC01108211828D81882F1D
S113107090E0892B19F481E88A8303C081E88A838C
S113108000008D81282F30E08981882F90E0220F85
S1131090331F820F931F880F991F8A509E4DFC01A6
S11310A0408151818D81282F30E08981882F90E003
S11310B0220F331F820F931F002496958795079460
S11310C0969587950794982F802D8A589E4D0BEFFF
S11310D016E09A01AC016C818A810E94361525962E
S11310E0CDBFDEBFDF91CF911F910F910895CF93B4
S11310F0DF9300D000D0CDB7DEB78E831E820E946E
S11311008A0389838E81882F90E0880F991F8D58D8
S11311109E4DFC01808191818A839B838E81282F3F
S113112030E08E81882F90E08E589E4DFC018081A6
S1131130882F90E0220F331F820F931F880F991F6F
S113114082599E4DFC01208131818A819B81A901B4
S1131150481B590BCA018C839D8389810E949A0381
S11311608C819D812696CDBFDEBFDF91CF910895FE
S1131170CF93DF931F92CDB7DEB7898389810E9415
S1131180770821E0892B09F420E0822F0F90DF916A
S1131190CF910895CF93DF93CDB7DEB72797CDBF17
S11311A0DEBF8F831F820E948A038B838F81882FE7
S11311B090E086509E4DFC0180818C838F81282F86
S11311C030E08C81882F90E0220F331F820F931F11
S11311D0880F991F8A509E4DFC01808191818983DB
S11311E09A8389819A818034910561F58F81882F52
S11311F090E083509E4DFC01908181E089278823F3
S113120009F18F81882F90E082509E4DFC019081DE
S113121081E089278823B1F08F81882F90E0825064
S11312209E4D21E0FC0120838F81882F90E021E0F6
S11312303C81332309F020E086509E4DFC0120833D
S113124019821A8220E430E089819A81A901481B1D
S1131250590BCA018D839E838B810E949A038D81D1
S11312609E812796CDBFDEBFDF91CF910895CF93A6
S1131270DF931F92CDB7DEB7898389810E94CA08A4
S113128021E0892B09F420E0822F0F90DF91CF9188
S11312900895CF93DF93CDB7DEB780E00E9437097E
S11312A0DF91CF910895CF93DF93CDB7DEB7289721
S11312B0CDBFDEBF8C836D837E831C828C81282FFF
S11312C030E0C901880F991F880F991F880F991F53
S11312D0821B930B84529F4DDC019C9181E09930D9
S11312E009F080E089838C810E943709982F81E07E
S11312F08927882351F09091EC2081E08927882365
S113130019F080E090E05AC0EECF0E948A038A83ED
S11313108C81882F90E086509E4DFC0180818B83C8
S11313208C81282F30E02F8338878B81682F70E0E1
S11313308C81482F50E08B81282F30E0CA01880F20
S1131340991F820F931F880F991F8A509E4DDC01AD
S11313508D919C91DC011196440F551F240F351F6C
S1131360220F331F2A503E4DF901A083B1834D81D2
S11313702F813885220F331F260F371F00243695FF
S113138027950794369527950794322F202D820FA1
S1131390931F8A589E4DDC014C938A810E949A03C4
S11313A08981882349F019828D819E81892F990F23
S11313B0990B8D839E8397CF81E090E02896CDBFD3
S11313C0DEBFDF91CF910895CF93DF931F921F92D9
S11313D0CDB7DEB789839A8389819A81BC0180E085
S11313E00E9453090F900F90DF91CF910895CF93EE
S11313F0DF93CDB7DEB78091082290910922FC01DA
S1131400208131818091082290910922FC01808100
S11314109181FC0182819381820F931FDF91CF918F
S11314200895CF93DF93CDB7DEB72597CDBFDEBF49
S11314308B839C836D830E94F70989839A838B81B4
S11314409C81FC018081882F90E02B813C81820F5C
S1131450931F8B839C831DC08B819C81FC018181A4
S1131460843009F41DC08B819C81FC0191818D81A4
S1131470981719F48B819C8115C08B819C81FC0188
S11314808081882F90E02B813C81820F931F8B8376
S11314909C8329813A818B819C8182179307E0F296
S11314A080E090E02596CDBFDEBFDF91CF91089517
S11314B0CF93DF9300D01F92CDB7DEB78B836C83BD
S11314C080910622882311F480E056C0809108227E
S11314D090910922FC0180819181FC0194818B818E
S11314E0891710F080E048C0809108229091092269
S11314F0FC018081918180930A2290930B220E94A7
S1131500F70989839A832EC080910A2290910B2235
S1131510FC0181818430A1F480910A2290910B22F4
S1131520FC0192818B81981759F480910A22909141
S11315300B22FC0193818C81981711F481E01CC06B
S113154020910A2230910B2280910A2290910B2241
S1131550FC018081882F90E0820F931F80930A22E0
S113156090930B2280910A2290910B2229813A8137
S11315708217930748F280E02496CDBFDEBFDF9147
S1131580CF910895CF93DF93CDB7DEB72597CDBF25
S1131590DEBF8D8360E08D810E94580A982F81E020
S11315A08927882311F080E047C080910822909118
S11315B00922FC01228133818D81882F90E0880FDC
S11315C0991F820F931FFC01808191818B839C83DF
S11315D08B819C81FC0186819781FC011995682F80
S11315E08D810E94580A982F81E08927882311F061
S11315F080E022C080910A2290910B2289839A83F1
S113160089819A8165E00E94110A89839A8389817C
S11316109A81892B51F400008B819C81FC01828189
S11316209381FC01199581E007C089819A81FC01AD
S113163082810E949614E4CF2596CDBFDEBFDF9150
S1131640CF910895CF93DF9300D01F92CDB7DEB72B
S11316508B836C836C818B810E94580A982F81E064
S11316608927882311F080E041C080910A2290915B
S11316700B2289839A8389819A8165E00E94110AE9
S113168089839A8389819A81892BC1F4000080918E
S1131690082290910922FC01228133818B81882FB9
S11316A090E0880F991F820F931FFC018081918124
S11316B0FC0180819181FC01199518C089819A816E
S11316C0FC012481358189819A81FC0163818981AE
S11316D09A81FC018281A9010E944C14982F81E017
S11316E08927882311F080E001C0C5CF2496CDBF9F
S11316F0DEBFDF91CF910895CF93DF93CDB7DEB7EF
S11317000E941913DF91CF910895CF93DF931F9215
S1131710CDB7DEB7809106228823A1F0198206C0D6
S113172089810E94C20A89818F5F898380910822FE
S113173090910922FC0180819181FC01948189812D
S1131740891770F31092062281E090E080930222C0
S1131750909303220F90DF91CF910895CF93DF935D
S11317601F92CDB7DEB7809106228823E9F1198252
S11317702FC08091082290910922FC01228133819B
S11317808981882F90E0880F991F820F931FFC0195
S113179080819181FC0180859185892BB1F08091B4
S11317A0082290910922FC01228133818981882FAA
S11317B090E0880F991F820F931FFC018081918113
S11317C0FC0180859185FC01199589818F5F89834E
S11317D08091082290910922FC0180819181FC0171
S11317E094818981891728F20F90DF91CF91089510
S11317F0CF93DF93CDB7DEB7809173239091742399
S1131800029711F080E007C062E070E082E092E2AB
S11318100E94301481E0DF91CF910895CF93DF933C
S1131820CDB7DEB78091732390917423029711F0A2
S113183080E013C080917123909172230E94AE14B2
S1131840882F90E080930C2290930D2262E070E048
S11318508CE092E20E94301481E0DF91CF910895F0
S1131860CF93DF93CDB7DEB7809173239091742328
S1131870892B11F080E012C080916F239091702326
S1131880019759F480910222909103228D7F8093D5
S113189002229093032281E001C080E0DF91CF9186
S11318A00895CF93DF93CDB7DEB7809173239091E2
S11318B07423892B11F080E00EC080916F239091E6
S11318C07023892B39F480917123909172230E94A3
S11318D0EB1401C080E0DF91CF910895CF93DF93A3
S11318E0CDB7DEB78091732390917423892B11F0C7
S11318F080E00AC080916F2390917023019719F0C2
S1131900000080E001C080E0DF91CF910895CF9383
S1131910DF93CDB7DEB78091732390917423892B25
S113192011F080E014C080916F2390917023892B73
S113193069F480917123909172230E94051680911D
S11319407123909172230E94CC1401C080E0DF9136
S1131950CF910895CF93DF93CDB7DEB780916F23F6
S1131960909170238F770E940214DF91CF91089594
S1131970CF93DF93CDB7DEB7809173239091742317
S1131980892B11F080E007C08AEA9CE080937923D8
S113199090937A2381E0DF91CF910895CF93DF93E1
S11319A000D01F92CDB7DEB71C8280916F23909137
S11319B0702399278130910569F08130910518F0E1
S11319C0029779F015C064E070E088E790E20E9425
S11319D0301410C08FE08C838CE790E28A839B8361
S11319E009C08FE08C838CE890E28A839B8302C0D9
S11319F080E033C08C81882379F1198219C08981F0
S1131A00882F90E02981222F30E04A815B81240FC6
S1131A10351FF9012081222F30E00196880F991F8C
S1131A2084569F4DFC012083318389818F5F898394
S1131A3099818C81981718F38C81882F90E00196F6
S1131A40880F80939C2080919C20882F90E0BC017B
S1131A508CE990E20E94301481E02496CDBFDEBF71
S1131A60DF91CF910895CF93DF931F92CDB7DEB767
S1131A7080916F2390917023898380916F2390913B
S1131A807023892F9927882F90E082309105F1F0F7
S1131A90833091051CF4019749F072C0833091059D
S1131AA009F464C00F9709F44AC06AC08091722097
S1131AB090917320FC018081282F30E08091722066
S1131AC090917320B9010E9430145CC080917220FF
S1131AD090917320FC0191898981891710F080E02D
S1131AE065C020917420309175208981882F90E001
S1131AF0880F991F880F991F820F931FFC01808103
S1131B009181FC0142815381209174203091752090
S1131B108981882F90E0880F991F880F991F820F61
S1131B20931FFC0180819181BA010E94301480913D
S1131B3075239091762322E0FC01218323C08091B8
S1131B40762090917720892B11F480E02FC080912A
S1131B50762090917720FC01228133818091762038
S1131B6090917720B9010E9430140CC00E94CE0CD1
S1131B70982F81E08927882311F080E017C002C0E4
S1131B8080E014C0209173233091742380917723D3
S1131B90909178232817390740F48091732390910A
S1131BA07423809377239093782381E00F90DF91BF
S1131BB0CF910895CF93DF93CDB7DEB78091732390
S1131BC090917423019711F080E007C061E070E008
S1131BD086E092E20E94301481E0DF91CF91089573
S1131BE0CF93DF931F92CDB7DEB78091732390918B
S1131BF07423892B11F080E058C00E9411148823AB
S1131C0011F480E052C080916F23909170239C0165
S1131C1033278091722090917320FC018189882F51
S1131C2090E08217930710F480E03FC00E94850B78
S1131C3080916F23909170238093062280910622D5
S1131C40882311F481E031C02091742030917520F3
S1131C5080910622882F90E08150904C880F991F24
S1131C60880F991F820F931F809308229093092253
S1131C7019820EC060E089810E94220B982F81E0B6
S1131C808927882311F080E010C089818F5F8983C0
S1131C908091082290910922FC0180819181FC01AC
S1131CA094818981891730F381E00F90DF91CF917E
S1131CB00895CF93DF9300D0CDB7DEB7809173231F
S1131CC090917423019711F080E047C0809106221F
S1131CD0882311F480E041C0809171239091722394
S1131CE089838091082290910922FC01808191814D
S1131CF0FC0194818981891710F080E02EC060E096
S1131D0089810E94580A982F81E08927882311F03D
S1131D1080E023C08091082290910922FC01228155
S1131D2033818981882F90E0880F991F820F931F38
S1131D30FC01808191818A839B838A819B81FC0140
S1131D4086819781FC0119958093042261E070E0FB
S1131D5084E092E20E94301481E02396CDBFDEBF7E
S1131D60DF91CF910895CF93DF931F921F92CDB748
S1131D70DEB78091732390917423892B11F080E056
S1131D801EC080910622882311F480E018C080913F
S1131D90712390917223898380916F239091702392
S1131DA08A8389810E94C20A982F81E08927882327
S1131DB011F080E004C06A8189810E94220B0F9097
S1131DC00F90DF91CF910895CF93DF93CDB7DEB716
S1131DD080916D2388230CF04CC0809173239091E3
S1131DE07423892B11F480E09AC080916D23882F8D
S1131DF090E08F719927892BB1F480916E23882FFD
S1131E0090E08630910549F08830910549F0892B9E
S1131E1009F009C00E94F80B82C00E94330D7FC0F4
S1131E200E94DA0D7CC080916D23882F90E08F7121
S1131E309927019751F480916E23882F90E00A9797
S1131E4009F003C00E94590E6AC080916D23882F47
S1131E5090E08F719927029709F060C080916E23FA
S1131E60882F90E0892B11F0000058C00E940E0CBE
S1131E7056C080916D23882F90E08F719927892B0C
S1131E8019F580916E23882F90E08530910579F0C3
S1131E908630910534F48130910561F0039769F03F
S1131EA013C08730910579F0099751F00DC00E9455
S1131EB0B80C35C00E94300C32C00E946E0C2FC08A
S1131EC00E94F00D2CC0000080916D23882F90E0BB
S1131ED08F719927019751F480916E23882F90E098
S1131EE00B9709F003C00E94B30E19C080916D23B3
S1131EF0882F90E08F719927029781F480916E2347
S1131F00882F90E08130910519F0039721F006C0E5
S1131F100E94510C04C00E94870C01C080E0DF9134
S1131F20CF910895CF93DF9300D0CDB7DEB78091E2
S1131F300622882311F480E04AC080917123909195
S1131F40722389838091082290910922FC01808167
S1131F509181FC0194818981891710F080E037C058
S1131F6060E089810E94580A982F81E0892788239C
S1131F7011F080E02CC08091082290910922FC018C
S1131F80228133818981882F90E0880F991F820FE5
S1131F90931FFC01808191818A839B838A819B8129
S1131FA0FC0186819781FC011995682F89810E9423
S1131FB0580A982F81E08927882311F080E007C010
S1131FC08A819B81FC0184819581FC01199523966A
S1131FD0CDBFDEBFDF91CF910895CF93DF9300D0C3
S1131FE0CDB7DEB780910622882311F480E047C084
S1131FF080917123909172238983198233C08091D7
S1132000082290910922FC01228133818981882F41
S113201090E0880F991F820F931FFC0180819181AA
S11320208A839B838A819B81FC0186819781FC0141
S11320301995682F89810E94580A982F81E0892771
S1132040882311F080E01BC08A819B81FC0184817C
S11320509581FC011995882311F081E010C08981D4
S11320608F5F89838091082290910922FC018081ED
S11320709181FC0194818981891708F280E023967B
S1132080CDBFDEBFDF91CF910895CF93DF93CDB75E
S1132090DEB710927723109278231092792310924E
S11320A07A2310927B2310927C2380916D238823C2
S11320B044F48091732390917423892B11F480E06C
S11320C02BC080916D23882F90E080769927892BEF
S11320D031F40E94E40E882311F081E01DC0809148
S11320E06D23882F90E08F719927019731F40E9416
S11320F0920F882311F081E00FC080916D23882F07
S113210090E08F719927029731F40E94ED0F882394
S113211011F081E001C080E0DF91CF910895CF9369
S1132120DF931F92CDB7DEB78FE390E0FC0180818F
S11321308983F89489810F90DF91CF910895CF938B
S1132140DF931F92CDB7DEB789838FE390E02981B7
S1132150FC0120830F90DF91CF910895CF93DF93FB
S11321601F921F92CDB7DEB78A838A81882F90E0B1
S113217089599C4DFC0180818F3F09F4FFCF0E9457
S11321808F1089838A81882F90E09C0129593C4DC6
S1132190F90120812F5F89599C4DFC01208389819D
S11321A00E949F100F900F90DF91CF910895CF93CD
S11321B0DF93CDB7DEB780E790E020E730E0F901A8
S11321C020812F77FC012083DF91CF910895CF9355
S11321D0DF9300D01F92CDB7DEB789836A834B8328
S11321E02C8380E09DE02981222311F030E101C09D
S11321F030E02A81222311F028E001C020E0322BB4
S11322002C81222311F020E401C020E0232B246040
S1132210FC01208380E09DE02B812F73FC0122834D
S11322202496CDBFDEBFDF91CF910895CF93DF9386
S113223000D01F92CDB7DEB789836A834B832C838A
S113224080E09DE039812A81322B2B81322B2C8135
S1132250232BFC0121832496CDBFDEBFDF91CF91D8
S11322600895CF93DF931F921F92CDB7DEB7898372
S11322706A8380E09DE02981FC01238380E09DE066
S1132280FC018181882F90E088709927892B19F0AF
S11322908A8186958A838A81882319F08A8181506C
S11322A08A838A81803210F08FE18A8380E09DE006
S11322B020E03DE0F9012381422F2A81222F30E0E2
S11322C0220F331F220F331F220F331F242BFC0135
S11322D023830F900F90DF91CF910895CF93DF93D5
S11322E01F92CDB7DEB7898380E09DE020E03DE01A
S11322F0F9012581322F3C7F2981232BFC01258381
S11323000F90DF91CF910895CF93DF93CDB7DEB7D0
S113231083E00E94AE1080E09DE020E03DE0F90102
S113232020812268FC012083DF91CF910895CF930F
S1132330DF93CDB7DEB70E94D71020E048E260E01B
S113234080E00E94E71020E048E060E380E80E941B
S1132350161160E180E00E94311181E00E946E114B
S11323600E948411DF91CF9108951BBEFC0128EDDA
S113237024BF608308951F920F9200903F000F9234
S1132380112400903B000F922F933F934F935F9340
S11323906F937F938F939F93AF93BF93EF93FF9329
S11323A0CF93DF93CDB7DEB780910E2290910F22A9
S11323B0892B31F080910E2290910F22FC01199506
S11323C0DF91CF91FF91EF91BF91AF919F918F9149
S11323D07F916F915F914F913F912F910F90009258
S11323E03B000F9000923F000F901F9018950F93A1
S11323F0CF93DF93CDB7DEB72797CDBFDEBF8983F9
S11324006A834B835C832D833E830F8380E09DE04E
S11324102A81322F3F732981232BFC0120878F814E
S1132420882311F080E88F8316C08B819C81FC0186
S11324308081882309F418C020E03DE08B819C81D1
S1132440AC014F5F5F4F4B835C83FC0190818F81B4
S1132450892BF90181878D819E819C01215031094D
S11324602D833E83892B09F72796CDBFDEBFDF91ED
S1132470CF910F9108954091CA01E62FF72F8093D1
S1132480CA0184914093CA010895CF93DF931F92A8
S1132490CDB7DEB78FE390E0FC0180818983F894A7
S11324A089810F90DF91CF910895CF93DF931F928D
S11324B0CDB7DEB789838FE390E02981FC012083C7
S11324C00F90DF91CF910895CF93DF931F92CDB7F3
S11324D0DEB789838981882F90E0BC0182E00E9465
S11324E03B120F90DF91CF910895CF93DF931F920A
S11324F0CDB7DEB78AE10E946412898389818F3F58
S113250031F08AEF94E02981FC01208305C08AEF31
S113251094E02FE1FC0120838BE10E946412898303
S113252089818F3F31F08BEF94E02981FC01208376
S113253005C08BEF94E02FE1FC0120830F90DF9125
S1132540CF910895CF93DF931F921F92CDB7DEB73B
S11325508A838A81882F90E089599C4DFC0180816F
S11325608F3F09F4FFCF0E94451289838A81882F07
S113257090E09C0129593C4DF90120812F5F895934
S11325809C4DFC01208389810E9455120F900F906D
S1132590DF91CF910895CF93DF931F921F92CDB710
S11325A0DEB78A838A81882F90E089599C4DFC018B
S11325B08081882309F4FFCF0E94451289838A8190
S11325C0882F90E09C0129593C4DF901208121502C
S11325D089599C4DFC01208389810E9455120F90DA
S11325E00F90DF91CF910895CF93DF931F92CDB7D2
S11325F0DEB78983998181E08927882339F0809126
S11326001022882319F081E00E94CB12898188234B
S113261049F09091102281E08927882319F081E004
S11326200E94A2128981809310220F90DF91CF9192
S11326300895CF93DF931F921F92CDB7DEB780E644
S113264090E0FC01108280E30E94590380EC94E046
S113265020EC34E0F90120812064FC01208380E631
S113266090E021E0FC0120830E9445128A831982B4
S113267010C08981882F90E0880F991F880F991FB7
S1132680880F991F8F5D9D4DFC01108289818F5F9A
S113269089838981863068F3198216C08981282F3D
S11326A030E0C901880F991F880F991F880F991F5F
S11326B0820F931F87569D4DFC0120812E7FFC01C4
S11326C0208389818F5F89838981843038F30E94D4
S11326D0751280EC94E020EC34E0F9012081226052
S11326E0FC01208380EC94E020EC34E0F9012081AB
S11326F02068FC01208380EC94E020EC34E0F901B4
S113270020812061FC01208380EC94E020E232E20D
S1132710FC012683378380EC94E020EC34E0F9015B
S113272020812062FC01208385EC94E02FEFFC01E2
S1132730208388EC94E028EC34E0F90120812160C6
S1132740FC0120831092102285E00E94A2120E94B4
S1132750B1138A810E9455120F900F90DF91CF918F
S11327600895CF93DF931F92CDB7DEB70E94451231
S1132770898381E00E94F4128AEC94E020E4FC0155
S113278020838AEC94E020E2FC01208381EC94E035
S113279021EC34E0F90120812160FC01208389ECE3
S11327A094E029EC34E0F90120812260FC012083CB
S11327B088EC94E028EC34E0F90120812064FC01E9
S11327C0208389EC94E029EC34E0F9012081216034
S11327D0FC01208388EC94E028EC34E0F9012081AA
S11327E02068FC01208389810E9455120F90DF919B
S11327F0CF910895CF93DF93CDB7DEB780E0DF911B
S1132800CF910895CF93DF931F92CDB7DEB789831D
S113281083EC94E02981FC0120830F90DF91CF9118
S11328200895CF93DF93CDB7DEB783EC94E0FC013A
S11328308081DF91CF910895CF93DF93CDB7DEB739
S11328408091502290915122DF91CF910895CF939E
S1132850DF93CDB7DEB780E090E0DF91CF910895AC
S1132860CF93DF9300D01F92CDB7DEB789839A83CD
S11328706B837C8389819A818093752390937623DB
S11328808B819C8180937723909378232496CDBF6A
S1132890DEBFDF91CF910895CF93DF9300D000D0B6
S11328A0CDB7DEB78B836C834D835E838B810E94AF
S11328B01A1889839A8389819A81FC018181882FDE
S11328C090E0807C9927892B11F080E029C08D81CC
S11328D09E81AC016C818B810E94A31789819A81AE
S11328E0FC018181882F90E0807C9927803C9105B0
S11328F061F489819A81FC018181882F90E087703D
S11329009927079711F481E00BC089819A81FC0112
S11329108181282F206289819A81FC01218381E0B1
S11329202696CDBFDEBFDF91CF910895CF93DF937D
S113293000D0CDB7DEB78B838B810E9405168B81C7
S11329400E941A1889839A8389819A81FC011182D1
S11329502396CDBFDEBFDF91CF910895CF93DF9350
S113296000D0CDB7DEB78B838B810E941A18898380
S11329709A8389819A81FC018181882F90E08470F7
S1132980992721E0892B09F420E0822F2396CDBFDB
S1132990DEBFDF91CF910895CF93DF9300D0CDB701
S11329A0DEB78B838B810E941A1889839A8389816D
S11329B09A81FC018181282F246089819A81FC01FC
S11329C021838B810E94051681E02396CDBFDEBF53
S11329D0DF91CF9108950F93CF93DF93CDB7DEB7F7
S11329E02597CDBFDEBF8D838D810E941A18898300
S11329F09A8389819A81FC0101E0069389819A81F5
S1132A00FC018181882F90E084709927892B11F42F
S1132A1081E025C089819A81FC018181282F2B7F47
S1132A2089819A81FC0121838D810E94A71B8B835C
S1132A309C838B819C81FC0180818170882371F04F
S1132A408B819C81FC0120812E7FFC0120838B8162
S1132A509C81FC0187819085FC01199581E0259674
S1132A60CDBFDEBFDF91CF910F9108950F931F93D8
S1132A70CF93DF93CDB7DEB72F97CDBFDEBF8E8365
S1132A806F83488759872A873B870C871D878E81E8
S1132A900E94A71B89839A838E810E941A188B83B4
S1132AA09C838B819C81FC018181882F90E0807CB8
S1132AB09927892B11F480E0A0C08B819C81FC01B3
S1132AC08181882F90E0807C9927803C910561F07A
S1132AD08B819C81FC018181882F90E084709927EF
S1132AE0892B11F080E089C00E9445128D83898171
S1132AF09A81FC0180818170882329F08D810E9454
S1132B00551280E07AC089819A81FC01208121607C
S1132B10FC0120838D810E94551289819A81288528
S1132B203985FC012183328389819A812A853B85F9
S1132B30FC012383348389819A81FC0115821682E6
S1132B4089819A812C853D85FC01278330878F817B
S1132B50882321F48A859B85892B19F481E090E0F0
S1132B6002C080E090E0282F217089819A81217031
S1132B70220FFC0130813D7F232BFC0120838981BE
S1132B809A81FC0120812B7FFC0120838E81882384
S1132B9034F48B819C81FC01168217822AC08B81BC
S1132BA09C81FC018181882F90E0807C9927803C66
S1132BB09105A9F48B819C810E94671B9C018A85E5
S1132BC09B85B9010E944D28892B49F089819A81FE
S1132BD0FC0120812E7FFC01208380E00EC08B81CC
S1132BE09C81FC01128213828B819C81FC011682E0
S1132BF017828E810E94CF1B81E02F96CDBFDEBF4E
S1132C00DF91CF911F910F9108950F93CF93DF938D
S1132C10CDB7DEB72597CDBFDEBF8D838D810E94F2
S1132C201A1889839A838D810E94A71B8B839C83A6
S1132C3089819A81FC0102E005938B819C81FC01CE
S1132C4080818170882309F426C08B819C81FC01DA
S1132C5020812E7FFC0120838B819C81FC01878154
S1132C609085892BC1F08B819C81FC012781308563
S1132C708D81882334F489819A81FC01868197812E
S1132C8005C089819A81FC01828193814D81BC01B7
S1132C9081E0F90119952596CDBFDEBFDF91CF9173
S1132CA00F9108951F920F9200903F000F921124EC
S1132CB000903B000F922F933F934F935F936F933A
S1132CC07F938F939F93AF93BF93EF93FF93CF9390
S1132CD0DF931F92CDB7DEB78BEC94E0FC018081CB
S1132CE0882344F48AEC94E020E8FC0120830E94C9
S1132CF0AE0B65C00E94F81A882309F060C08BEC03
S1132D0094E0FC018081882F90E080719927892BC1
S1132D1081F18AEC94E020E1FC01208381E0898345
S1132D200AC089810E940516898180680E9405165F
S1132D3089818F5F89838981823098F30E94850B12
S1132D4083EC94E0FC01108240E450E060E080E019
S1132D500E94A31740E450E060E080E80E94A317BB
S1132D6089E592E280932422909325220E943D18C3
S1132D7026C08BEC94E0FC018081882F90E0807465
S1132D809927892B49F08AEC94E020E4FC01208304
S1132D9080E00E94F41213C08BEC94E0FC0180816B
S1132DA0882F90E080729927892B49F08AEC94E06F
S1132DB020E2FC01208381E00E94F4120000000064
S1132DC00F90DF91CF91FF91EF91BF91AF919F91C0
S1132DD08F917F916F915F914F913F912F910F90C0
S1132DE000923B000F9000923F000F901F901895A7
S1132DF01F920F9200903F000F92112400903B000D
S1132E000F920F932F933F934F935F936F937F93FF
S1132E108F939F93AF93BF93EF93FF93CF93DF93DE
S1132E20CDB7DEB72A97CDBFDEBF8CEC94E0FC01B2
S1132E308081882F90E082709927892B29F40E9441
S1132E40361B882309F063C08CEC94E022E0FC017B
S1132E50208385EC94E0FC0180818983998180E062
S1132E60891B880F8A8320E232E28A81882F90E0CE
S1132E70A901481B590BCA018B839C838B819C81BC
S1132E808D839E838D819E81FC012081318180E22E
S1132E9092E2A901481B590BCA019695879596950C
S1132EA08795969587958F838F81282F26958F8177
S1132EB0882F90E081709927892B11F080E801C058
S1132EC080E0820F888788850E941A1889879A87EC
S1132ED089859A85FC018081882F90E080729927EA
S1132EE0892B09F415C089859A85FC0100E20693B3
S1132EF08885882319F40E948B1909C08885803835
S1132F0019F40E94F31803C088850E94CF1B0000A7
S1132F102A96CDBFDEBFDF91CF91FF91EF91BF9194
S1132F20AF919F918F917F916F915F914F913F915D
S1132F302F910F910F9000923B000F9000923F0051
S1132F400F901F901895CF93DF93CDB7DEB72897D6
S1132F50CDBFDEBF8D836E834F8358878E81882FCC
S1132F6090E0837099278130910569F08230910552
S1132F701CF4892B29F057C004970CF054C006C0E8
S1132F8080E4898306C080EC898303C080E8898358
S1132F9000008F8198858038910511F18138910561
S1132FA048F480329105B1F080349105B1F0409736
S1132FB071F00BC0811522E09207C1F08F3FE3E06E
S1132FC09E07B9F08115914071F01A8215C081E015
S1132FD08A8312C082E08A830FC083E08A830CC094
S1132FE084E08A8309C085E08A8306C086E08A83F8
S1132FF003C087E08A8300008D810E941A188B83A6
S11330009C838B819C81FC0111828B819C8126E0B5
S1133010FC01208399818A81292F282B8B819C8113
S1133020FC01218301C000002896CDBFDEBFDF91E3
S1133030CF910895CF93DF931F92CDB7DEB78983E5
S11330408981882F90E08F7099279C01220F331F6C
S11330508981881F8827881F882F90E0820F931FFB
S1133060880F991F880F991F880F991F0C968C5EE3
S11330709D4D0F90DF91CF9108950F93CF93DF93E0
S1133080CDB7DEB788EC94E028EC34E0F901208178
S11330902F7DFC01208388EC94E028EC34E0F901D6
S11330A020812F7DFC01208388E292E2FC0102E072
S11330B0059310922A2210922B2288E292E2FC01BC
S11330C000E2069388E292E2FC0100E4069380E2C7
S11330D092E2FC0100E2069380E292E2FC0100E449
S11330E006931092792310927A2310927B231092E4
S11330F07C23109277231092782310925422DF912C
S1133100CF910F9108950F93CF93DF93CDB7DEB78F
S113311080915422882361F080915422833021F0DD
S113312080915422843011F40E94E51A0E943D18C3
S11331308091222290912322089709F050C088E0C0
S1133140E9E5F2E2ADE6B3E201900D928A95E1F78A
S113315088EC94E028EC34E0F90120812062FC0141
S1133160208388EC94E028EC34E0F901208120628B
S1133170FC0120830E944510982F81E08927882331
S113318019F00E94A91A2BC080916D23882374F42E
S113319010925522109256221092572210925822C1
S11331A082E0809354220E94F31819C08091732303
S11331B090917423892B19F40E94BF1A10C01092A5
S11331C0552210925622109257221092582281E0D2
S11331D08093542280E292E2FC0102E00693DF91A4
S11331E0CF910F9108950F93CF93DF931F921F9266
S11331F0CDB7DEB780915422833029F40E94E51ABA
S11332000E943D1882C020917723309178238091C9
S1133210572290915822A901481B590BCA0189834E
S11332209A8389819A81892BD9F5209155223091ED
S113323056228091572290915822820F931F809397
S113324055229093562220917323309174238091B8
S11332505522909156222817390721F080913D2359
S1133260882319F00E94D41A50C080917B23909136
S11332707C23892BA9F080917B2390917C23FC01F2
S11332801995982F81E08927882351F410925722A9
S113329010925822809177239091782389839A837E
S11332A089819A818034910538F080E490E08983A3
S11332B09A8310923D2303C081E080933D2389814A
S11332C09A8180932A2290932B2280917523909146
S11332D076239C018091572290915822820F931F4C
S11332E080932C2290932D222091572230915822A2
S11332F089819A81820F931F809357229093582239
S113330088E292E2FC0102E006930F900F90DF91B5
S1133310CF910F9108950F93CF93DF931F921F9234
S1133320CDB7DEB780915422843029F40E94E51A87
S11333300E943D18AEC0809122229091232289835D
S11333409A8320917723309178234091572250918A
S1133350582289819A81840F951F2817390770F4A0
S1133360209177233091782380915722909158228D
S1133370A901481B590BCA0189839A83209175239B
S1133380309176238091572290915822820F931F77
S113339029813A81A90169E572E20E94B928209144
S11333A057223091582289819A81820F931F8093EA
S11333B057229093582289819A818034910589F407
S11333C020917323309174234091552250915622B9
S11333D08091572290915822840F951F821793074A
S11333E0F8F08091572290915822809377239093FC
S11333F0782380917B2390917C23892B71F0809199
S11334007B2390917C23FC011995982F81E08927D7
S1133410882319F00E94A91A3CC00E94BF1A39C01F
S113342020917723309178238091572290915822CC
S11334302817390749F580917B2390917C23892BA8
S113344019F40E94A91A25C080917B2390917C23B2
S1133450FC011995982F81E08927882319F00E948F
S1133460A91A17C0209155223091562280915722D3
S113347090915822820F931F809355229093562245
S1133480109257221092582280E292E2FC0102E04C
S113349006930F900F90DF91CF910F9108950F93A2
S11334A0CF93DF93CDB7DEB78CEC94E0FC01808141
S11334B0882F90E082709927892B21F40E94361B73
S11334C0882309F015C080915422813019F40E9498
S11334D0BF1A0EC080915422843051F489E292E2E2
S11334E0FC0104E0059381E292E2FC0104E005930F
S11334F0DF91CF910F9108950F93CF93DF93CDB7C1
S1133500DEB78CEC94E0FC018081882F90E082701F
S11335109927892B21F40E94361B882309F015C0B2
S113352080915422823019F40E94D41A0EC08091E2
S11335305422833051F489E292E2FC0104E00593C1
S113354081E292E2FC0104E00593DF91CF910F91B7
S113355008950F93CF93DF93CDB7DEB785E08093C3
S1133560542289E292E2FC0104E0059381E292E2B2
S1133570FC0104E00593DF91CF910F9108950F931F
S1133580CF93DF93CDB7DEB783E0809354221092BC
S11335902A2210922B2288E292E2FC0102E0069396
S11335A0DF91CF910F9108950F93CF93DF93CDB710
S11335B0DEB784E08093542280E292E2FC0102E0D0
S11335C00693DF91CF910F910895CF93DF93CDB7F9
S11335D0DEB78091792390917A23892B31F0809101
S11335E0792390917A23FC011995DF91CF91089565
S11335F0CF93DF93CDB7DEB78BEC94E0FC018081F1
S1133600882F90E084709927892B89F08AEC94E0C4
S113361024E0FC01208380912822882F90E080748C
S11336209927892B11F00E944F1A81E01CC08BEC62
S113363094E0FC018081882F90E082709927892B87
S113364089F08AEC94E022E0FC012083809120221E
S1133650882F90E080749927892B11F00E947C1A9E
S113366081E001C080E0DF91CF9108950F93CF9363
S1133670DF93CDB7DEB78CEC94E0FC018081882F1A
S113368090E081709927892B11F480E01CC08CECA8
S113369094E021E0FC01208380E292E2FC0100E856
S11336A0069388E292E2FC0100E806938AEC94E037
S11336B021E0FC01208380E292E2FC0100E1069318
S11336C00E94831881E0DF91CF910F910895CF93E9
S11336D0DF931F921F92CDB7DEB789839A838981C6
S11336E09A81FC018181882F90E087709927092EA7
S11336F0000CAA0BBB0B41E050E026E030E0841B39
S1133700950B2817390738F0FC018827EE55FF4F31
S11337108F4F0C94802888E090E014C080E190E002
S113372011C080E290E00EC080E490E00BC080E81D
S113373090E008C080E091E005C080E092E002C023
S11337408FEF93E00F900F90DF91CF910895CF9377
S1133750DF931F92CDB7DEB789838981882F90E0EC
S11337608F7099279C01220F331F8981881F882716
S1133770881F882F90E0820F931F9C0122503109EB
S1133780C901880F991F880F991F880F991F820FED
S1133790931F87569D4D0F90DF91CF9108950F93FE
S11337A0CF93DF93CDB7DEB76597CDBFDEBF8B87F1
S11337B08B850E94A71B8B839C838B850E941A1880
S11337C08D839E838D819E810E94671B8F83988742
S11337D08B8588230CF0AAC08D819E81FC01868193
S11337E0978189879A878B819C81FC012581368109
S11337F089859A85280F391F8B819C81FC0125833B
S113380036838B819C81FC01258136818B819C814F
S1133810FC01838194812817390709F468C08B81DE
S11338209C81FC01238134818B819C81FC018581F5
S11338309681A901481B590BCA0189839A838981FE
S11338409A818115944070F08FEF93E02F81388531
S1133850B9010E944D289C018FEF93E0821B930BCA
S113386089839A838B819C81FC0180818270882367
S113387061F089819A812F813885B9010E944D2890
S1133880892B19F481E090E002C080E090E0282FB9
S113389021708B819C812170220FFC0130813D7F3E
S11338A0232BFC0120838D819E81FC0116821782CB
S11338B08D819E8129813A81FC01228333838B810E
S11338C09C81FC01218132818B819C81FC01858159
S11338D09681820F931F9C018D819E81FC0124831C
S11338E035838D819E81FC0102E006933AC18B8170
S11338F09C81FC0180818270882309F40DC18B8135
S11339009C81FC0120812D7FFC0120838D819E817F
S1133910FC01168217828D819E81FC011282138222
S11339208D819E81FC0102E006931BC18D819E81E5
S1133930FC018281938189879A878B819C81FC0118
S113394080818470882349F18B819C81FC0183816F
S113395094812F813885B9010E944D28AC018B8553
S1133960882F90E001970024969587950794969563
S113397087950794982F802DBC0163547D4D8B81CE
S11339809C81FC01218132818B819C81FC01858198
S11339909681820F931F0E94B9288B819C81FC0120
S11339A02581368189859A85280F391F8B819C81D1
S11339B0FC01258336838B819C81FC012581368122
S11339C08B819C81FC01838194818217930750F43D
S11339D08B819C81FC01238134818B819C81FC013E
S11339E0258336838D819E81FC01268137818985DB
S11339F09A852817390709F08FC08B819C81FC01B7
S1133A00258136818B819C81FC01838194812817D7
S1133A10390709F481C08B819C81FC0123813481A5
S1133A208B819C81FC0185819681A901481B590BDE
S1133A30CA0189839A8389819A818115944078F097
S1133A408FEF93E02F813885B9010E944D289C01A6
S1133A508FEF93E0821B930B89839A830EC0898135
S1133A609A812F813885B9010E944D289C01898152
S1133A709A81821B930B89839A838D819E81FC0199
S1133A801282138229813A818F81988528173907F8
S1133A9020F58B819C81FC0120812460FC01208322
S1133AA08B85882F90E0019700249695879507943D
S1133AB0969587950794982F802D83549D4D9C014E
S1133AC08D819E81FC01248335838D819E812F818C
S1133AD03885FC012683378319C08B819C81FC01C6
S1133AE0218132818B819C81FC0185819681820FA9
S1133AF0931F9C018D819E81FC01248335838D81DC
S1133B009E8129813A81FC01268337838D819E81A0
S1133B10FC0102E0069325C08B819C81FC0180811D
S1133B2081708823E9F08B819C81FC0120812E7FA8
S1133B30FC0120838B819C81FC0187819085892BEA
S1133B4079F08B819C81FC01278130858B819C815C
S1133B50FC01858196814B85BC0180E0F9011995B2
S1133B6000006596CDBFDEBFDF91CF910F91089520
S1133B70CF93DF931F921F92CDB7DEB789839A83C9
S1133B800F900F90DF91CF910895CF93DF931F9201
S1133B901F92CDB7DEB789839A830F900F90DF9180
S1133BA0CF910895CF93DF93CDB7DEB72597CDBFDF
S1133BB0DEBF89839A836B834C832D8389819A81A9
S1133BC02B81FC01208389819A81FC018081882FCB
S1133BD090E0092E000CAA0BBB0B40E050E027E05C
S1133BE030E0841B950B2817390708F4FFC0FC014B
S1133BF08827E755FF4F8F4F0C94802889819A813D
S1133C0021E0FC01218380E096E020E036E0F90128
S1133C1020812E7FFC01208380E096E020E036E0C6
S1133C20F90122852160FC01228780E096E03C8135
S1133C302D81232BFC01208BD9C089819A8122E01C
S1133C40FC01218380E096E020E036E0F901208148
S1133C502D7FFC01208380E096E020E036E0F9012E
S1133C6022852260FC01228780E096E03C812D8140
S1133C70232BFC01218BBAC089819A8124E0FC01A9
S1133C80218380E096E020E036E0F90120812B7F5B
S1133C90FC01208380E096E020E036E0F9012285F3
S1133CA02460FC01228780E096E03C812D81232B57
S1133CB0FC01228B9BC089819A8128E0FC0121832D
S1133CC080E096E020E036E0F9012081277FFC01C6
S1133CD0208380E096E020E036E0F9012285286028
S1133CE0FC01228780E096E03C812D81232BFC019E
S1133CF0238B7CC089819A8120E1FC01218380E0AF
S1133D0096E020E036E0F90120812F7EFC0120833B
S1133D1080E096E020E036E0F90122852061FC0194
S1133D20228780E096E03C812D81232BFC01248BAB
S1133D305DC089819A8120E2FC01218380E096E0C4
S1133D4020E036E0F90120812F7DFC01208380E012
S1133D5096E020E036E0F90122852062FC0122870A
S1133D6080E096E03C812D81232BFC01258B3EC015
S1133D7089819A8120E4FC01218380E096E020E09F
S1133D8036E0F90120812F7BFC01208380E096E05E
S1133D9020E036E0F90122852064FC01228780E0DE
S1133DA096E03C812D81232BFC01268B1FC0898149
S1133DB09A8120E8FC01218380E096E020E036E04F
S1133DC0F90120812F77FC01208380E096E020E038
S1133DD036E0F90122852068FC01228780E096E024
S1133DE03C812D81232BFC01278B000080E096E091
S1133DF020E036E0F90121852360FC012187259626
S1133E00CDBFDEBFDF91CF910895CF93DF9300D074
S1133E10CDB7DEB78A839B8380E096E0FC012085E2
S1133E208A819B81FC018181922F982381E09923CF
S1133E3009F480E0882319F081E0898301C01982A4
S1133E4089812396CDBFDEBFDF91CF9108951F9264
S1133E500F9200903F000F9211248F93CF93DF9322
S1133E60CDB7DEB781E080933F23DF91CF918F916F
S1133E700F9000923F000F901F901895CF93DF93FF
S1133E801F921F92CDB7DEB789839A830F900F904C
S1133E90DF91CF910895CF93DF931F921F92CDB7F7
S1133EA0DEB789839A830F900F90DF91CF910895A5
S1133EB0CF93DF9300D0CDB7DEB789839A836B832A
S1133EC0000081EA98E0FC018081882F90E08072F4
S1133ED0992721E0892B09F020E0222391F780EA39
S1133EE098E02B81FC0120832396CDBFDEBFDF91B8
S1133EF0CF910895CF93DF9300D01F92CDB7DEB753
S1133F0089839A836B837C830EC08B819C819C0103
S1133F102F5F3F4F2B833C83FC01208189819A8151
S1133F20622F0E94581F8B819C81FC018081882311
S1133F3061F72496CDBFDEBFDF91CF910895CF9373
S1133F40DF931F92CDB7DEB7898380E09DE020E048
S1133F503DE0F9012581322F3C7F2981232BFC018F
S1133F6025830F90DF91CF910895CF93DF931F9214
S1133F70CDB7DEB789838981803234F080E09DE05B
S1133F802FE1FC0127830EC08981803E34F480E058
S1133F909DE020EEFC01278305C080E09DE029819F
S1133FA0FC0127830F90DF91CF9108950F93CF9356
S1133FB0DF931F921F92CDB7DEB789839A838981DD
S1133FC09A8100E027E030E0AC016CE080E80E94D8
S1133FD0F7110F900F90DF91CF910F910895CF9328
S1133FE0DF931F92CDB7DEB7898389810E94B51F05
S1133FF00F90DF91CF910895CF93DF931F92CDB7A8
S1134000DEB7898389810E949F1F0F90DF91CF9132
S11340100895CF93DF931F921F92CDB7DEB78983A4
S11340209A8389819A810E94D61F0F900F90DF9105
S1134030CF910895CF93DF931F921F92CDB7DEB730
S113404089839A830F900F90DF91CF910895CF9336
S1134050DF9300D01F92CDB7DEB789839A836B8339
S11340607C8389819A812B813C81FC01208331836B
S11340700E9497118CE30E94EF1F82E00E94FC1FB4
S11340802496CDBFDEBFDF91CF910895CF93DF9308
S113409000D01F92CDB7DEB789839A836B837C836C
S11340A089819A8102962B813C81B9010E94C228A0
S11340B089819A8102960E9409200E9449098823D5
S11340C0A1F00DC08B819C819C012F5F3F4F2B83FE
S11340D03C83FC018081882F90E00E94E4098B815D
S11340E09C81FC018081882369F789819A819C01E4
S11340F02E5F3F4F89819A81FC0180819181B901B2
S11341000E947A1F2496CDBFDEBFDF91CF91089520
S1134110CF93DF93CDB7DEB72A97CDBFDEBF8987B4
S11341209A8728E0ECEBF0E2CE010196DC010190E5
S11341300D922A95E1F7CE0101960E9409202A9654
S1134140CDBFDEBFDF91CF910895CF93DF931F9250
S11341501F92CDB7DEB789839A8389819A81FC0146
S1134160118289819A81FC0112820F900F90DF9154
S1134170CF910895CF93DF9300D000D0CDB7DEB7B1
S113418089839A836B837C834D832E8389819A816F
S11341902B813C81FC012383348389819A812D8185
S11341A0FC01258389819A812E81FC0126838981E2
S11341B09A81FC018681882351F480E790E020E70E
S11341C030E0F90123812E7FFC01238309C080E7BD
S11341D090E020E730E0F90123812D7FFC01238367
S11341E089819A81FC018381948129813A81F90131
S11341F023813481F901408129813A81F9012581A2
S1134200242BFC01208389819A810E949321269684
S1134210CDBFDEBFDF91CF910895CF93DF9300D060
S11342201F92CDB7DEB789839A836B834C838981D0
S11342309A810E9449218C818823E9F08C818536FA
S1134240D0F48B818823B9F08B818536A0F48981E1
S11342509A812C81FC01228389819A812B81FC0122
S1134260218389819A81FC01268189819A81622F27
S11342700E940B2308C089819A81FC0112828981E2
S11342809A81FC0111822496CDBFDEBFDF91CF91CC
S11342900895CF93DF931F921F92CDB7DEB7898322
S11342A09A8389819A810E94932189819A81FC0150
S11342B08081882349F480E098E0FC01168280E044
S11342C098E0FC01178208C080E498E0FC011682A3
S11342D080E498E0FC0117820F900F90DF91CF915A
S11342E00895CF93DF931F921F92CDB7DEB78983D2
S11342F09A8389819A81FC018381948129813A81FD
S1134300F90123813481F9012481422F29813A81E1
S1134310F901258120952423FC0124830F900F901B
S1134320DF91CF910895CF93DF931F921F92CDB762
S1134330DEB789839A8389819A81FC018381948180
S113434029813A81F90123813481F9014481298148
S11343503A81F9012581242BFC0124830F900F90CD
S1134360DF91CF9108951F920F9200903F000F921A
S1134370112400903B000F922F933F934F935F9330
S11343806F937F938F939F93AF93BF93EF93FF9319
S1134390CF93DF93CDB7DEB781E493E20E949321FC
S11343A0DF91CF91FF91EF91BF91AF919F918F9149
S11343B07F916F915F914F913F912F910F90009258
S11343C03B000F9000923F000F901F9018951F9292
S11343D00F9200903F000F92112400903B000F9227
S11343E02F933F934F935F936F937F938F939F93F9
S11343F0AF93BF93EF93FF93CF93DF93CDB7DEB724
S113440081E493E20E947121DF91CF91FF91EF91BA
S1134410BF91AF919F918F917F916F915F914F91D8
S11344203F912F910F9000923B000F9000923F001C
S11344300F901F9018951F920F9200903F000F92BB
S1134440112400903B000F922F933F934F935F935F
S11344506F937F938F939F93AF93BF93EF93FF9348
S1134460CF93DF93CDB7DEB788E493E20E94932124
S1134470DF91CF91FF91EF91BF91AF919F918F9178
S11344807F916F915F914F913F912F910F90009287
S11344903B000F9000923F000F901F9018951F92C1
S11344A00F9200903F000F92112400903B000F9256
S11344B02F933F934F935F936F937F938F939F9328
S11344C0AF93BF93EF93FF93CF93DF93CDB7DEB753
S11344D088E493E20E947121DF91CF91FF91EF91E3
S11344E0BF91AF919F918F917F916F915F914F9108
S11344F03F912F910F9000923B000F9000923F004C
S11345000F901F901895CF93DF93CDB7DEB72E97FA
S1134510CDBFDEBF8B839C836D837E838B819C8127
S1134520FC018181282F30E040E050E080E096E3F8
S1134530AEE6B1E0BC01CD010E946128DA01C901F7
S11345402FEF3FEF40E050E0BC01CD010E94612815
S1134550DA01C90189839A8389819A81892B49F473
S11345608D819E8121E030E0FC012083318381E054
S11345704CC089819A81029748F48D819E8122E002
S113458030E0FC012083318382E03FC089819A813D
S1134590049748F48D819E8124E030E0FC0120835F
S11345A0318383E032C089819A81089748F48D81F0
S11345B09E8128E030E0FC012083318384E025C023
S11345C089819A818034910548F48D819E8120E40B
S11345D030E0FC012083318385E017C089819A8112
S11345E08F3F910509F048F48D819E8120E031E0F0
S11345F0FC012083318386E008C08D819E8120E008
S113460034E0FC012083318387E02E96CDBFDEBFEA
S1134610DF91CF910895CF92DF92EF92FF920F93A3
S11346201F93CF93DF93CDB7DEB76697CDBFDEBFC1
S11346308C839D836E8319828C819D812E81FC01E4
S113464020831A821B828C819D81FC0180818823B6
S113465069F400E018E09E012E5F3F4F8C819D813C
S1134660B9010E948322F80180830CC000E418E0A1
S11346709E012E5F3F4F8C819D81B9010E94832250
S1134680F80180838C819D81FC018081882329F538
S113469000E018E08A819B819C0140E050E080E0CA
S11346A096E3AEE6B1E0BC01CD010E946128DA01D7
S11346B0C9016C017D018C819D81FC018181282FC0
S11346C030E040E050E0C701B6010E946128DA0101
S11346D0C901F80186A397A324C000E418E08A81E5
S11346E09B819C0140E050E080E096E3AEE6B1E0BF
S11346F0BC01CD010E946128DA01C9016C017D0170
S11347008C819D81FC018181282F30E040E050E0C4
S1134710C701B6010E946128DA01C901F80186A324
S113472097A38C819D81FC018081882331F480E0F2
S113473098E023E0FC01218305C080E498E023E0B5
S1134740FC0121838C819D81FC018081882319F5E2
S113475040E058E08C819D81FC018281682F70E0EB
S113476080E098E0FC0126A137A1629FC001639F0D
S1134770900D729F900D1124969587959695879527
S11347809C01ABE7B4E10E94882896958795FA01CD
S113479080A791A722C040E458E08C819D81FC0150
S11347A08281682F70E080E098E0FC0126A137A1A7
S11347B0629FC001639F900D729F900D1124969586
S11347C08795969587959C01ABE7B4E10E9488286C
S11347D096958795FA0180A791A78C819D81FC010C
S11347E08081882331F480E098E021E0FC01268375
S11347F005C080E498E021E0FC0126838C819D8142
S1134800FC018081882331F480E098E021E0FC0100
S1134810278305C080E498E021E0FC0127838C8194
S11348209D81FC018081882341F480E098E0FC01B3
S113483086A197A18436910570F08C819D81FC013D
S11348408081813051F480E498E0FC0186A197A135
S11348508436910510F481E001C080E0882311F0D2
S113486081E0898389816696CDBFDEBFDF91CF91D8
S11348701F910F91FF90EF90DF90CF900895CF9309
S1134880DF93CDB7DEB70E94D00280EA90E027E044
S1134890FC0122830E947C0B64E673E28BE593E2C5
S11348A00E94272080E493E20E94802620E040E1D9
S11348B060E276E081E493E20E94BA2021E040E2E3
S11348C060E276E088E493E20E94BA2028E340E0C4
S11348D060E08FE493E20E94D21D20E140E061E0B9
S11348E081E593E20E94D21D20E140E063E083E58C
S11348F093E20E94D21D28E340E065E085E593E25F
S11349000E94D21D28E140E066E087E593E20E9420
S1134910D21D20E140E067E089E593E20E94D21DC8
S113492078940E949424FDCFCF93DF93CDB7DEB764
S11349302E97CDBFDEBF80913F23882309F48AC020
S113494010923F238FE493E20E94051F882389F08D
S113495083E593E20E94051F882359F085E593E2DD
S11349600E94051F982F81E08927882311F081E098
S113497001C080E0882339F042E361E081E493E2FE
S11349800E940D211EC08FE493E20E94051F88231C
S113499041F081E593E20E94051F882311F081E034
S11349A001C080E0882339F04BE462E081E493E2C3
S11349B00E940D2106C040E060E081E493E20E9481
S11349C00D2185E593E20E94051F882341F083E5CC
S11349D093E20E94051F882311F081E001C080E06A
S11349E0882359F080E493E20E94EA2642E3682F88
S11349F088E493E20E940D2106C040E060E088E470
S1134A0093E20E940D2187E593E20E94051F982FEF
S1134A1081E08927882351F064EC70E28BE593E20E
S1134A200E94462081E080933F2314C089E593E2ED
S1134A300E94051F882351F06DEC70E28BE593E230
S1134A400E94462081E080933F2304C08BE593E2DB
S1134A500E94882080E090E0A8E4B3E489839A83EC
S1134A60AB83BC8320E030E04AE753E469817A8178
S1134A708B819C810E94B827DC01CB018D839E83AE
S1134A80AF83B88720E030E040E85FE36D817E814A
S1134A908F8198850E94322788232CF481E090E04E
S1134AA089879A873FC020E03FEF4FE757E46D8145
S1134AB07E818F8198850E94B32718164CF520E0DB
S1134AC030E040E251E469817A818B819C810E94CB
S1134AD0B827DC01CB01BC01CD010E943727DC01E2
S1134AE0CB0189879A870FC089E190E08B879C87E7
S1134AF08B859C850197F1F78B879C8789859A859F
S1134B00019789879A8789859A85892B69F714C0C3
S1134B106D817E818F8198850E943727DC01CB01CE
S1134B2089879A8789859A858D879E878D859E85B5
S1134B300197F1F78D879E872E96CDBFDEBFDF915B
S1134B40CF910895CF93DF93CDB7DEB781E0809303
S1134B503E2381E0DF91CF910895CF93DF93CDB7CA
S1134B60DEB710923E23DF91CF910895CF93DF9368
S1134B7000D01F92CDB7DEB789839A836B837C8381
S1134B8089819A81019781F58B819C81019661F5D8
S1134B9080E493E20E943C2681E493E20E94A520F3
S1134BA088E493E20E94A5208FE493E20E94B81D5A
S1134BB081E593E20E94B81D83E593E20E94B81D4B
S1134BC085E593E20E94B81D87E593E20E94B81D33
S1134BD089E593E20E94B81D8BE593E20E941A20B6
S1134BE084E693E20E943E1F89819A81892B21F5F4
S1134BF08B819C81019601F584E693E20E944B1F10
S1134C0089E593E20E94C51D87E593E20E94C51DD4
S1134C1085E593E20E94C51D83E593E20E94C51DCC
S1134C2081E593E20E94C51D8FE493E20E94C51DB5
S1134C3080E493E20E944D262496CDBFDEBFDF912F
S1134C40CF910895CF93DF93CDB7DEB76FEF7FEFAA
S1134C5081E090E00E94B625DF91CF910895CF9333
S1134C60DF93CDB7DEB76FEF7FEF80E090E00E9477
S1134C70B625DF91CF910895CF93DF931F921F92B2
S1134C80CDB7DEB789839A83109265231092662389
S1134C900F900F90DF91CF910895CF93DF931F92E0
S1134CA01F92CDB7DEB789839A830F900F90DF915F
S1134CB0CF910895CF93DF93CDB7DEB72797CDBFBC
S1134CC0DEBF8D839E836F838AEC91E022E0FC013A
S1134CD020838F81882F90E089839A8389819A81A8
S1134CE0FC0184918B838B818C838AEC91E0FC01A1
S1134CF010828C812796CDBFDEBFDF91CF910895BE
S1134D000F931F93CF93DF931F921F92CDB7DEB7FC
S1134D1089839A8380E790E020E730E0F9012281DB
S1134D202D7FFC01228300E412E089819A8164E2F0
S1134D300E945A26F801848700E412E089819A814E
S1134D4065E20E945A26F801858700E412E0898111
S1134D509A8164E20E945A26F801848700E412E0F2
S1134D6089819A8165E20E945A26F801858780E448
S1134D7092E021E0FC0120A380E492E028E0FC0121
S1134D8021A380E492E028E1FC01218380E492E005
S1134D9025E0FC01248380E492E020E1FC012283ED
S1134DA080E492E0FC01138280E492E021E0FC01C3
S1134DB0268380E492E023E0FC0122A380E492E0D5
S1134DC021E0FC0120830F900F90DF91CF911F9180
S1134DD00F910895CF93DF9300D01F92CDB7DEB724
S1134DE089839A83809165239091662324E6289F82
S1134DF0A001299F500D11242FEF3FE0CA01B901F2
S1134E000E944D28CB012496CDBFDEBFDF91CF9108
S1134E1008951F920F9200903F000F92112400906A
S1134E203B000F928F939F93EF93FF93CF93DF9366
S1134E30CDB7DEB780E492E0FC0184A195A1809314
S1134E40652390936623DF91CF91FF91EF919F911A
S1134E508F910F9000923B000F9000923F000F90B3
S1134E601F9018950E94662708F481E008950E9417
S1134E70922788F09F5798F0B92F9927B751B0F02F
S1134E80E1F0660F771F881F991F1AF0BA95C9F7CA
S1134E9014C0B13091F00E94AC27B1E008950C9495
S1134EA0AC27672F782F8827B85F39F0B93FCCF348
S1134EB0869577956795B395D9F73EF49095809547
S1134EC0709561957F4F8F4F9F4F0895990F0008FC
S1134ED0550FAA0BE0E8FEEF16161706E807F907C8
S1134EE0C0F012161306E407F50798F0621B730B63
S1134EF0840B950B39F40A2661F0232B242B252BE4
S1134F0021F408950A2609F4A140A6958FEF811D86
S1134F10811D089557FD9058440F551F59F05F3F68
S1134F2071F04795880F97FB991F61F09F3F79F0C7
S1134F3087950895121613061406551FF2CF469549
S1134F40F1DF08C0161617061806991FF1CF8695CB
S1134F507105610508940895E894BB2766277727AF
S1134F60CB0197F908950E94662708F48FEF0895FE
S1134F700E94CB270C943C280E942E2838F00E94D3
S1134F80352820F0952311F00C9425280C942B2817
S1134F9011240C94AD270E948A2770F3959FC1F3C6
S1134FA0950F50E0551F629FF001729FBB27F00DD3
S1134FB0B11D639FAA27F00DB11DAA1F649F662728
S1134FC0B00DA11D661F829F2227B00DA11D621F77
S1134FD0739FB00DA11D621F839FA00D611D221F31
S1134FE0749F3327A00D611D231F849F600D211D15
S1134FF0822F762F6A2F11249F5750409AF0F1F098
S113500088234AF0EE0FFF1FBB1F661F771F881F00
S113501091505040A9F79E3F510580F00C942528EB
S11350200C94AD275F3FE4F3983ED4F386957795CF
S11350306795B795F795E7959F5FC1F7FE2B880FA6
S1135040911D9695879597F9089597F99F6780E83C
S113505070E060E008959FEF80EC089500240A94C6
S11350601616170618060906089500240A9412163F
S11350701306140605060895092E0394000C11F472
S1135080882352F0BB0F40F4BF2B11F460FF04C01F
S11350906F5F7F4F8F4F9F4F0895AA1BBB1B51E13A
S11350A007C0AA1FBB1FA617B70710F0A61BB70B94
S11350B0881F991F5A95A9F780959095BC01CD0139
S11350C00895052E97FB1EF400940E94782857FD3E
S11350D007D00E94972807FC03D04EF40C9478283C
S11350E050954095309521953F4F4F4F5F4F089510
S11350F090958095709561957F4F8F4F9F4F089540
S1135100EE0FFF1F881F8BBF0790F691E02D1994B7
S1135110A29FB001B39FC001A39F700D811D1124F4
S1135120911DB29F700D811D1124911D0895A1E25E
S11351301A2EAA1BBB1BFD010DC0AA1FBB1FEE1F0D
S1135140FF1FA217B307E407F50720F0A21BB30B58
S1135150E40BF50B661F771F881F991F1A9469F7D4
S113516060957095809590959B01AC01BD01CF0130
S11351700895FB01DC0102C001900D9241505040A2
S1135180D8F70895FB01DC0101900D920020E1F7AE
S1135190089510E0CCEED0E000E006C0802FFE01C0
S11351A00E9480282196011DCD3ED10780E008078A
S10951B0A9F7F894FFCFFB
S11351B6A9031A053B05C40500008D042605BC0594
S11351C6C405CC051201000202000040EB030424CE
S11351D600010102000109024300020100C0320974
S11351E60400000102020100052400100104240247
S11351F60205240600010524010301070582034074
S1135206001009040100020A00000007058102409B
S11352160000070502024000000000200A202620A4
S11352266A2014206E2000000403090453756E548A
S1135236656368204D65646963616C004D696E69D8
S113524650726F6A65637420436F6D00000300003B
S11352560000000000000000000000000000000044
S113526600000000000000000000000020202020B4
S11352762020200053756E5465636820004D6564D4
S10952866963616C200065
S9030000FC
