:100000000C94D8000C9409010C9409010C9409017A
:100010000C9409010C9409010C9409010C94090138
:100020000C9409010C9409010C9409010C94090128
:100030000C9409010C9409010C9461100C940901B1
:100040000C9437100C9409010C9409010C940901CB
:100050000C94B5100C9409010C948B100C940901AC
:100060000C9409010C9409010C9409010C940901E8
:100070000C9409010C9409010C9409010C94230DB2
:100080000C94D90D0C9409010C9409010C942908C5
:100090000C9409010C9409010C9409010C940901B8
:1000A0000C9409010C9409010C9409010C940901A8
:1000B0000C9489130C9409010C9409010C94090106
:1000C0000C9409010C9409010C9409010C94090188
:1000D0000C9409010C9409010C9409010C94090178
:1000E0000C9409010C9409010C9409010C94090168
:1000F0000C9409010C9409010C9409010C94090158
:100100000C9409010C9409010C9409010C94090147
:100110000C9409010C9409010C9409010C94090137
:100120000C9409010C9409010C9409010C945F0FC3
:100130000C9409010C9409010C9409010C94090117
:100140000C940901CE0EDE0EEE0EFE0E0E0F1E0FEB
:100150002E0F3E0F0C942E0F0C9452040C941E0F75
:100160000C9405130C94EF010C943E0F0C940E0F9D
:100170000C9427020C94CE0E0C94FE0E0C94EE0EF2
:100180000C94FE020C94E0010C94D9120C94DE0E37
:100190000C94AE030C94D8010C94E3010C9400036E
:1001A0000C9478030C94E2010C94DE01D91205132F
:1001B00011241FBECFEFCDBFDFE3DEBF00E00CBFD9
:1001C00010E2A0E0B0E2ECE3F8E200E00BBF02C016
:1001D00007900D92A43EB107D9F723E2A4EEB0E256
:1001E00001C01D92A838B207E1F710E0C7EDD0E0DA
:1001F00000E006C021970109802FFE010E94D21362
:10020000C63DD10780E00807A9F70E9483120C942D
:100210000C140C940000CF93DF931F92CDB7DEB780
:100220008FB78983F89489810F90DF91CF910895DA
:100230000E940B01A0E5B0E016969C911697997F5D
:1002400016969C931697E0E6F0E090E895839BEB7A
:10025000968316969C911697946016969C9390811F
:10026000916090838FBF0895CF93DF9300D01F924A
:10027000CDB7DEB78FEF80937000809371008093CD
:100280007200809373008093740080937500809354
:10029000760064E081E490E00E9423086CE170E065
:1002A00082E00E946C088C836DE170E082E00E9425
:1002B0006C088B838B819C81019621F480E493E20E
:1002C0008B839C838B819C8189839A83809362003A
:1002D0008A81809363000E940B019091500092608C
:1002E000909350008FBF8091510081FFFCCF0E94FE
:1002F000180161E080E490E00E9423080E940B0155
:10030000909150009E7F909350008FBF81E080932A
:1003100043002496CDBFDEBFDF91CF9108951F9398
:10032000CF93DF931F92CDB7DEB7182F69830E945A
:100330000B01E12FF0E0E059FF4F6981609590815A
:10034000692360838FBF0F90DF91CF911F91089534
:10035000CF93863011F0C0E001C0C8E18091510018
:1003600081FD0EC00E940B0190915000926090930D
:1003700050008FBF8091510081FFFCCF0E94180177
:100380006C2F636084E490E00E94230860E480E0C6
:10039000CF910C948F01CF93DF931F92CDB7DEB72F
:1003A0008FB78983F89489810F90DF91CF91089559
:1003B0008091FA2181508093FA21089580E0089578
:1003C00080E0089508958091F92181508093F9216A
:1003D0008091F9210E94D6121092F82108959091EF
:1003E0007823892F807697FF0EC0803271F5809137
:1003F0007923813251F580917E2390917F2387303C
:10040000910519F516C0803201F58091792380326B
:1004100019F08232C1F019C080917E2390917F2320
:100420008730910591F422EE31E0209384233093BC
:10043000852328E032E22093802330938123809328
:1004400082239093832381E0089580E008951092A1
:10045000FA21109206221092072281EA8093FC2151
:1004600080E28093FD211092FE211092FF211092D4
:1004700000221092012282E090E080930222909369
:100480000322109204221092052280E092ECA1E057
:10049000B0E08093082290930922A0930A22B0939F
:1004A0000B2210920C2210920D2288E080930E22D3
:1004B0000E94D212882329F09091FA219F5F909395
:1004C000FA210895FF920F931F93CF93DF938091AA
:1004D000E72081118DC00E94BD0BC091E820D09112
:1004E000E9208823B1F00E94CA0BC817D90709F484
:1004F0007FC00E94CB01D82FC091EA20EC2FF0E002
:10050000EE0FFF1FE551FF4D80819181892B31F561
:1005100003C00E94C50BE9CF2091E4203091E52073
:100520002F5F3F4F2093E4203093E5200E94BD0BC6
:10053000811109C08091E4209091E52084369105D5
:1005400010F4DFBF55C00E94BD0B882339F08091A5
:10055000E4209091E5208032934098F31092E420BB
:100560001092E5208091E620811106C081E0C11142
:1005700080E08093EA2004C081E0C11180E0C82FB0
:1005800081E08093E720DFBFD0E08E01000F111FD4
:10059000F801E551FF4DFF24F3948081918180346F
:1005A000910531F4F12C1092E8201092E9200DC051
:1005B0000E94BD0B882319F00E94CA0B02C00E9442
:1005C000C50B8093E8209093E920F801E551FF4D99
:1005D00020813181AE0186E0440F551F8A95E1F7F5
:1005E00040515F4D00E013E06F2D81E80E94560CF2
:1005F000DF91CF911F910F91FF9008950C946202AB
:10060000811115C02091EA2081E090E0222311F0B1
:1006100080E090E0880F991FFC01E551FF4D1082AA
:1006200011821092E6201092E7200C946202089545
:100630000E94CB012091712130917221E0917321B0
:10064000F0E0EE0FFF1FEC58FE4D408151818FBF4F
:10065000CA01821B930B08950E94180321E0892B85
:1006600009F420E0822F08950F931F93CF93DF9317
:100670000E94CB012091732190917021911110C0A3
:100680006091712170917221C22FD0E0FE01EE0FB6
:10069000FF1FEC58FE4D408151816417750718F417
:1006A0008FBF80E020C0109271211092722191E0E2
:1006B000211190E09093732191E0909370218FBF6E
:1006C00080E00E942C03AE0186E0440F551F8A95FE
:1006D000E1F748585E4D0EEA13E020E430E061E0B7
:1006E00082E00E94560CDF91CF911F910F910895E7
:1006F0001092F9211092E7201092E6201092EA2041
:100700001092EB201092EC201092ED201092EE202F
:100710001092E8201092E9200E946202109270214B
:1007200010927321109274211092752110927621EB
:100730001092772110927121109272210E9434033D
:10074000882359F09091F9219F5F9093F92190911E
:10075000F921913011F49093F82108950F931F938C
:10076000811127C08091732121E0811120E030E0C8
:100770006115710589F4842F96E0220F331F9A9535
:10078000E1F7A90148585E4D0EEA13E020E430E09D
:1007900061E00E94560C0DC0220F331FF901EC5886
:1007A000FE4D60837183109270211F910F910C9404
:1007B00034031F910F9108950E94CB014091EA20CC
:1007C000E42FF0E0EE0FFF1FE551FF4D2081318156
:1007D0002034310589F49091E72091110DC090915A
:1007E000E620911109C091E09093E620411190E03C
:1007F0009093EA2020E030E08FBF80E490E0821BFD
:10080000930B08950E94DC0321E0892B09F420E07A
:10081000822F089580E00C9402041F93CF93DF93FE
:10082000162FD72FC1E080910E22893009F0C0E049
:1008300080E00E940204811107C08091F82181119B
:10084000F7CF80E090E026C00E94CB01E091EA2043
:10085000F0E0DF01AA0FBB1FA551BF4D2D913C91C8
:100860001197A9014F5F5F4F4D935C9346E0EE0FE8
:10087000FF1F4A95E1F72E0F3F1FF901E051FF4D91
:1008800010838FBFCC2321F01D2FDD0FDD0BCFCFC9
:1008900081E090E0DF91CF911F910895BC0180E04D
:1008A0000C940D0480917A238F770C94BF0B909158
:1008B0001622911102C080E00895E0911422F09177
:1008C00015220190F081E02D94818917A0F7E09323
:1008D0001222F0931322228133812E0F3F1FE21741
:1008E000F30798F49181943061F49281891309C0DF
:1008F0009381691306C0E0931222F093132281E0E2
:1009000008959081E90FF11DEACFE0931222F09350
:100910001322D1CFE0911422F09115220190F081A1
:10092000E02D228133812E0F3F1FFC014081E40F17
:10093000F11DE217F30748F48181843031F08530EE
:1009400039F08081E80FF11DF4CF80E090E0089548
:10095000CF0108951F93CF93DF93182F0E94570460
:10096000882349F1C0911222D0911322CE010E9416
:100970008A04EC01892B49F04C815D816B818A816D
:100980000E94D40B8111F2CF16C0E0911422F09195
:10099000152292818381E92FF82FE10FF11DE10FDC
:1009A000F11D0190F081E02D0190F081E02DDF91AB
:1009B000CF911F91199480E0DF91CF911F910895FD
:1009C000EF92FF921F93CF93DF93C82F60E00E94B6
:1009D0005704811102C010E02FC0E0911422F09161
:1009E000152292818381E92FF82FEC0FF11DEC0F76
:1009F000F11DE080F180D7011696ED91FC911797DB
:100A00001995682F8C2F0E945704182F882319F3EB
:100A1000C0911222D0911322CE010E948A04EC01CF
:100A2000892B21F08A810E940A0DF6CFD7011296F8
:100A3000ED91FC9113971995812FDF91CF911F9123
:100A4000FF90EF9008950C944C0BCF938091162259
:100A500081110AC01092162281E090E080931A2240
:100A600090931B22CF910895C0E0E0911422F09161
:100A700015220190F081E02D8481C81758F78C2F42
:100A80000E94E004CF5FF1CFCF938091162288239C
:100A9000F1F0C0E0E0911422F0911522A081B18123
:100AA00014968C91C81798F492818381E92FF82FBE
:100AB000EC0FF11DEC0FF11D0190F081E02D008491
:100AC000F185E02D309709F01995CF5FE3CFCF91F5
:100AD0000895EF92FF920F931F93CF93DF931F928E
:100AE000CDB7DEB710928223109283231092842315
:100AF0001092852310928623109287238091782369
:100B000087FF07C020917E2330917F23232B09F498
:100B10004DC2982F907609F0D5C187FFFEC0209175
:100B20007E2330917F232115310509F4CBC18F71CC
:100B300009F09EC080917923863071F0883009F4E5
:100B40008CC08111BFC12230310509F0BBC162E008
:100B500070E08AE192E289C080917A2390917B23B0
:100B6000292F332722303105A1F064F421303105DB
:100B700009F0A8C18091142090911520DC016C919E
:100B800070E058C02330310591F12F30310511F15B
:100B900099C1E0911420F09115202189821708F065
:100BA00091C19927880F991F880F991FE0911620EE
:100BB000F0911720E80FF91F80819181FC0162817B
:100BC00073810E94CD0BE0918023F091812382E01C
:100BD000818332C08091182090911920009709F4E8
:100BE00071C1DC0112966D917C91139723C09927F6
:100BF0008130910561F030F0029709F063C1E8E9B6
:100C0000F0E207C064E070E088EB90E213C0E8EA2D
:100C1000F0E2AAE7B0E2819190E08D939D9380E2AB
:100C2000A839B807C1F780E28093782060E270E0CD
:100C300088E790E20E94CD0B80917E2390917F23E4
:100C400020918223309183238217930708F0ACC14F
:100C50008093822390938323A7C12130310509F02B
:100C600031C161E070E086E192E20E94CD0B9CC14F
:100C70008130D1F5809179238A3009F023C1213068
:100C8000310509F01FC180911622882309F41AC189
:100C9000E0907C23F0907D23009114221091152286
:100CA000D801ED91FC918481E81608F00BC160E059
:100CB0008E2D0E945704882309F404C1FF24EE0CF2
:100CC000FF1CF801828193818E0D9F1DDC01ED9147
:100CD000FC910680F781E02D19958093182261E040
:100CE00070E088E192E2C1CF823009F0EBC08091E0
:100CF00079238111E7C02230310509F0E3C08091EA
:100D00007C230E942F0C90E080931022909311225C
:100D100062E070E080E192E2A8CF8F7109F080C0BC
:100D200080917923833009F4CDC018F48130A1F08B
:100D3000C9C0853019F0893039F1C4C080917E2353
:100D400090917F23892B09F0BDC082E594E08093C8
:100D500084239093852328C180917E2390917F23C3
:100D6000892B09F0AFC080917A2390917B23019762
:100D700009F0A8C080911A2290911B228D7F809348
:100D80001A2290931B2210C180917E2390917F2381
:100D9000892B09F097C00E94C20B882309F492C0E6
:100DA00020917A2330917B233327E0911420F09116
:100DB0001520818990E08217930708F483C00E9470
:100DC000250580917A2390917B2380931622882396
:100DD00009F4EAC099278150904C880F991F880F19
:100DE000991F2091162030911720820F931F809316
:100DF00014229093152210E0E0911422F091152214
:100E00000190F081E02D8481181708F0CDC060E0DA
:100E1000812F0E94AA04882309F454C01F5FECCFDD
:100E2000813001F5809179238B3009F04BC080919E
:100E30007E2390917F23892B09F044C08091162254
:100E4000882309F43FC010917C2360917A23812F7D
:100E500069830E94E00469818823A1F1812F0E94A7
:100E6000AA042EC0823071F580917923813019F067
:100E7000833091F027C080917E2390917F23892B2E
:100E800009F580917A2390917B23892BD9F4809165
:100E90007C230E94370C14C080917E2390917F2385
:100EA000892B81F480917A2390917B23892B51F4B3
:100EB00080917C230E94D80C80917C230E94150D88
:100EC000811172C0809178238F718130C9F5809132
:100ED00016228823A9F1E0907C23F0907D230091D5
:100EE000142210911522D801ED91FC918481E8160D
:100EF00038F560E08E2D0E945704882309F1F70130
:100F0000FF27EE0FFF1FD80112968D919C9113972A
:100F1000E80FF91F00811181D8011696ED91FC911F
:100F200017971995682F8E2D0E945704882341F03A
:100F3000D8011496ED91FC9115971995811134C043
:100F4000809178238F71823089F5809116228823D1
:100F500069F1F12CE0911422F0911522A081B18168
:100F600014968C91F81610F592818381E92FF82F51
:100F7000EF0DF11DEF0DF11D00811181D8011696C5
:100F8000ED91FC9117971995682F8F2D0E945704AA
:100F9000882361F0D8011496ED91FC91159719956D
:100FA000811102C0F394D6CF81E001C080E00F90A0
:100FB000DF91CF911F910F91FF90EF900895CF9304
:100FC000DF931F92CDB7DEB7809170008F7780934B
:100FD000700084E08093000D88E28093020D88EB1E
:100FE0008093010D1092030D8091010D83FF02C0CB
:100FF00098E001C090E12091030D915038E0939F5B
:10100000C0011124822B8093030D8091050D8C7FEC
:1010100081608093050D809175238F3F09F4FFCF88
:101020008FB78983F8949981809175238F5F80931E
:1010300075239FBF8091000D82688093000D0F90F3
:10104000DF91CF9108951BBEFC0128ED24BF608382
:1010500008951F920F920FB60F9211240BB60F92A4
:101060002F933F934F935F936F937F938F939F93B0
:10107000AF93BF93EF93FF93E0911C22F0911D2259
:10108000309709F01995FF91EF91BF91AF919F9122
:101090008F917F916F915F914F913F912F910F9021
:1010A0000BBE0F900FBE0F901F9018950F936F738C
:1010B000862B8093080D011100E8FA01240F351FDB
:1010C000E217F30739F08191882321F0802B809378
:1010D000090DF6CF0F9108954091CA01E62FF72F21
:1010E0008093CA0184914093CA010895CF93DF93FE
:1010F0001F92CDB7DEB78FB78983F89489810F909F
:10110000DF91CF910895CF93DF93C82FD0E0CE58D1
:10111000DC4D88818F3F09F4FFCF0E9476089881CB
:101120009F5F98838FBFDF91CF910895CF93DF9317
:10113000C82FD0E0CE58DC4D8881811101C0FFCF8F
:101140000E9476089881915098838FBFDF91CF914C
:101150000895CF93C82F80914823C11106C08823DA
:1011600049F081E00E94960805C0811103C081E02A
:101170000E948308C0934823CF910895282F2F7091
:10118000082E000C990B392F331F3327331F832F61
:1011900090E0820F911D820F911D23E0880F991F0F
:1011A0002A95E1F78C5E9C4D08950F93E8ECF4E0EE
:1011B00080818F7D808380818F7D8083ECE1F3E26D
:1011C00002E0059310921E2310921F2300E2069363
:1011D00000E40693E4E1F3E200E2069300E4069300
:1011E000E8E7F3E2148615861686178612861386BC
:1011F000109207230F9108950F9385E080930723A2
:10120000EDE1F3E204E00593E5E1F3E204E00593A8
:101210000F9108950F9383E08093072310921E236C
:1012200010921F23ECE1F3E202E006930F91089580
:10123000E0918423F0918523309709F01994089563
:10124000282F2F70082E000C990B392F331F3327AE
:10125000331F832F90E0820F911D820F911D029703
:1012600049E0489F9001499F300D1124C9018156E2
:101270009D4D08958F929F92AF92BF92DF92EF9211
:10128000FF920F931F93CF93DF93D82E0E942009D4
:10129000EC018D2D0E94BE087C01DC011196EC91C1
:1012A000E770E150E73040F4F0E0EE0FFF1FE45448
:1012B000FF4D0081118102C008E010E0ED81FE8148
:1012C0002B813C814881D701D7FE4AC016968D916B
:1012D0009C9117978E0F9F1F8D839E838217930774
:1012E00071F1281B390B2115B4E03B0740F02FEFBB
:1012F00033E0C901B8010E949F13281B390B41FF3D
:101300000BC0C901B8010E949F13AC0191E0452BAD
:1013100009F090E0892F01C080E0988180FB91F96D
:101320009883F701168217822283338329813A81B9
:101330008D819E81820F931F848395830EC041FF10
:1013400074C04D7F4883D70116961D921C92179743
:1013500012961D921C921397F70102E006937EC02D
:101360001296AD90BC90139742FF12C089809A806C
:10137000C901B8010E949F13B0E4DB9EB0011124A3
:1013800061527E4DAC01C4018E0F9F1F0E94FC1361
:101390008D819E818A0D9B1D8D839E832B813C8137
:1013A0002817390710F42D833E83F7018681978132
:1013B000A816B906D1F58D819E8182179307A9F1F0
:1013C000281B390B2115F4E03F0710F02FEF33E015
:1013D000C901B8010E949F13281B390BD70112962F
:1013E0001D921C9213972017310778F4888184602E
:1013F0008883B0E4DB9EC001112481529E4DF70129
:101400008483958306831783A7CF49815A818D8171
:101410009E81840F951FD70114968D939C931597E9
:1014200016962D933C93179797CF888180FF16C00F
:101430008E7F8883EF81F885309781F06D817E8182
:101440004D2D80E0DF91CF911F910F91FF90EF9094
:10145000DF90BF90AF909F908F901994DF91CF91C4
:101460001F910F91FF90EF90DF90BF90AF909F90F2
:101470008F9008950F93CF93DF938091072383304C
:1014800039F40E941809DF91CF910F910C94D5087F
:101490002091032330910423C0918223D091832390
:1014A000C21BD30B61F58091052390910623820F17
:1014B000931F809305239093062320917E233091E0
:1014C0007F232817390721F080911E22882331F0CD
:1014D00084E080930723E4E1F3E236C0E0918623C1
:1014E000F0918723309799F01995882381F0109215
:1014F000032310920423C0918223D0918323C0340C
:10150000D10528F010921E22C0E4D0E003C081E093
:1015100080931E22C0931E23D0931F238091032308
:10152000909104232091802330918123280F391F2B
:101530002093202330932123C80FD91FC093032366
:10154000D0930423ECE1F3E202E00693DF91CF9124
:101550000F9108950F93CF93DF931F92CDB7DEB70E
:101560008091CC0480FF6BC021E02093CC0484E107
:1015700093E2FC0100E80693ECE1F3E200E8069355
:101580002093CA04FC0100E106938091072388237D
:1015900039F08350823010F40E9418090E94D50857
:1015A0008091162390911723089709F04AC088E08C
:1015B000E3ECF2E2A8E7B3E201900D928A95E1F73D
:1015C0008091C80480628093C8048091C8048062BE
:1015D0008093C8040E946905811103C00E94FC0821
:1015E00030C09091782397FF0FC01092052310927E
:1015F0000623109203231092042392E09093072372
:1016000089830E943A0A09C020917E2330917F236A
:10161000232B29F489830E940A09898113C010921F
:10162000052310920623109203231092042391E0C5
:1016300090930723E4E1F3E202E0069303C080E025
:1016400001C081E00F90DF91CF910F910895CF936A
:101650000E947608C82F81E00E94A908EAECF4E015
:1016600080E4808380E28083E1ECF4E0908191600B
:101670009083A9ECB4E09C9192609C93E8ECF4E038
:101680009081906490839C9191609C9390819068EC
:101690009083CFBFCF910895CF931092600080E3E5
:1016A0000E94A8018091C00480648093C00481E0FE
:1016B000809360000E947608C82F10921523109224
:1016C0001D231092252310922D2310923523109262
:1016D0003D2390919F229E7F90939F229091A822DC
:1016E0009E7F9093A8229091B1229E7F9093B122E9
:1016F0009091BA229E7F9093BA226AE170E082E0D4
:101700000E946C088F3F09F48FE18093FA046BE12B
:1017100070E082E00E946C088F3F09F48FE18093B3
:10172000FB049091C00492609093C0049091C00417
:1017300090689093C0049091C00490619093C0040D
:1017400084E193E28093C6049093C7049091C0040F
:1017500090629093C0048FEF8093C5049091C80469
:1017600091609093C8041092482385E00E948308FA
:101770000E94270BCFBFCF91089580E008958093FA
:10178000C30408958091C3040895809144239091E7
:101790004523089580E090E00895E8E7F3E280872C
:1017A00091876287738708950F931F93CF93DF9379
:1017B0001F92CDB7DEB78A0169830E94BE08FC0183
:1017C0008181807C6981811141C06370613019F031
:1017D00020F090E803C090EC01C090E400381105BF
:1017E000E9F058F400321105A9F000341105A1F018
:1017F00000311105C9F481E018C0011582E0180715
:1018000079F00F3F83E0180769F00115114061F48A
:1018100085E00BC082E009C083E007C084E005C01A
:1018200086E003C087E001C080E0118226E02083CB
:10183000892B81838181807C803C21F48181877028
:10184000873031F081818062818302C080E001C0F5
:1018500081E00F90DF91CF911F910F9108950E9429
:10186000BE08FC01818182FB882780F908950F93CF
:10187000CF93C82F0E94BE08FC0101E0069381812E
:1018800082FF10C091819B7F91838C2F0E94200941
:10189000FC01908190FF06C09E7F90830780F085B9
:1018A000E02D199581E0CF910F9108958F929F922D
:1018B000AF92BF92CF92DF92EF92FF920F931F935E
:1018C000CF93DF93B82EA62E4A0179010E942009FA
:1018D000EC018B2D0E94BE086C01DC0111968C91ED
:1018E0001197807C09F456C011968C911197807CD9
:1018F000803C21F011968C9182FD4CC00E947608AC
:10190000988190FF02C08FBF45C0916098838FBFC0
:1019100089829A82EB82FC821D821E820F83188745
:1019200091E0A11004C0E114F10409F090E0888175
:1019300090FB81F98B7F8883B7FE02C0F60123C03C
:10194000D60111968C911197807C803CC9F4119638
:10195000EC91E770E150E73040F4F0E0EE0FFF1F4C
:10196000E454FF4D6081718102C068E070E0C701FE
:101970000E949F13892B21F088818E7F88830AC063
:10198000F60112821382168217828B2D0E943A0969
:1019900081E001C080E0DF91CF911F910F91FF9016
:1019A000EF90DF90CF90BF90AF909F908F90089571
:1019B000EF92FF920F93CF93C82F0E94BE087C0135
:1019C0008C2F0E942009DC01F70102E005939C9115
:1019D00090FF1BC09E7F9C931796ED91FC911897EA
:1019E000309799F0D701C7FF05C016966D917C918D
:1019F000179704C012966D917C9113974C2F81E03C
:101A0000CF910F91FF90EF901994CF910F91FF908C
:101A1000EF900895CF93C82F0E94D80C8C2F0E946E
:101A2000BE08FC011182CF910895CF93C82F0E9468
:101A3000BE08FC019181946091838C2F0E94D80C88
:101A400081E0CF9108951F920F920FB60F9211244B
:101A50000BB60F920F932F933F934F935F936F9318
:101A60007F938F939F93AF93BF93EF93FF93809157
:101A7000CB0487FF06C080E88093CA040E94440517
:101A800084C08091CB0482FF1AC084E08093CA0492
:101A900080911C2386FF79C08091CC0481FD75C0A4
:101AA0000E94AA0A811171C080910723813019F424
:101AB0000E940A096AC0843009F067C022C0809180
:101AC000CB0481FF27C082E08093CA048091142355
:101AD00086FF5BC08091CC0481FD57C00E94AA0A9A
:101AE000811153C080910723823041F484E08093B8
:101AF0000723E4E1F3E202E0069347C0833009F0F4
:101B000044C0EDE1F3E204E00593E5E1F3E204E033
:101B100005933BC08091CB0484FF24C080E1809377
:101B2000CA0481E00E94D80C81E80E94D80C0E946F
:101B300025051092C3041092152396E09093142368
:101B400083E48093152310921D2390931C2380938C
:101B50001D2383EC92E280931823909319230E9413
:101B6000D50813C08091CB0486FF05C080E4809324
:101B7000CA0480E008C08091CB0485FF06C080E2E3
:101B80008093CA0481E00E94A908FF91EF91BF9160
:101B9000AF919F918F917F916F915F914F913F9105
:101BA0002F910F910F900BBE0F900FBE0F901F90B3
:101BB00018951F920F920FB60F9211240BB60F9229
:101BC0000F931F932F933F934F935F936F937F9345
:101BD0008F939F93AF93BF93CF93DF93EF93FF9335
:101BE0008091CC0481FF1AC082E08093CC04809164
:101BF000C5048195880FE4E1F3E2E81BF109208137
:101C000031812451334283E0369527958A95E1F757
:101C1000822F869520FD07C0C0E006C00E94AA0A58
:101C2000882311F38EC0C0E8C80F8C2F0E94BE0815
:101C3000FC01208125FF85C000E20693C11179C017
:101C400080910723843029F40E9418090E94D50846
:101C500078C00091162310911723809182239091D0
:101C60008323C0910323D09104239E01200F311FB1
:101C70008217930718F48C010C1B1D0B8091802395
:101C800090918123A80163EC72E28C0F9D1F0E944A
:101C9000FC13C00FD11FC0930323D093042300343F
:101CA000110569F480910523909106238C0F9D1FE7
:101CB00020917E2330917F238217930798F0C09361
:101CC0008223D0938323E0918623F091872330975A
:101CD00031F01995811103C00E94FC0832C00E94A6
:101CE0000A092FC080918223909183238C179D072E
:101CF000D9F4E0918623F0918723309769F3199501
:101D0000882351F3209105233091062380910323EA
:101D100090910423820F931F8093052390930623B1
:101D20001092032310920423E4E1F3E202E006930D
:101D300008C0C03819F40E943A0A03C08C2F0E94D0
:101D40003A09FF91EF91DF91CF91BF91AF919F91B0
:101D50008F917F916F915F914F913F912F911F9143
:101D60000F910F900BBE0F900FBE0F901F90189504
:101D7000089508950F931F93DC01822F6C93062F13
:101D800010E00830110508F088C0F801242F282B36
:101D90008827EE55FF4F8F4F0C94D21381E0119698
:101DA0008C93809100068E7F8093000680910A06B6
:101DB000816080930A06209310066FC082E011961E
:101DC0008C93809100068D7F8093000680910A0697
:101DD000826080930A06209311065FC084E011960A
:101DE0008C93809100068B7F8093000680910A0679
:101DF000846080930A06209312064FC088E01196F3
:101E00008C9380910006877F8093000680910A065C
:101E1000886080930A06209313063FC080E11196E4
:101E20008C93809100068F7E8093000680910A0635
:101E3000806180930A06209314062FC080E21196D9
:101E40008C93809100068F7D8093000680910A0616
:101E5000806280930A06209315061FC080E41196C5
:101E60008C93809100068F7B8093000680910A06F8
:101E7000806480930A06209316060FC080E81196AE
:101E80008C93809100068F778093000680910A06DC
:101E9000806880930A062093170680910906836064
:101EA000809309061F910F91089520910806FC0167
:101EB0008181922F982381E009F480E008951F9298
:101EC0000F920FB60F9211248F9381E080936E23AF
:101ED0008F910F900FBE0F901F9018950895089541
:101EE0008091A10885FFFCCF6093A00808950F930F
:101EF0001F93CF93DF938C01EB016991662321F04F
:101F0000C8010E94700FF9CFDF91CF911F910F91FF
:101F100008950895FC01608371830E94DF07E0E06B
:101F2000FDE08FE1878385818C7F826085830895C2
:101F3000BF92CF92DF92EF92FF920F931F93CF93B6
:101F4000DF936C01B62E172F7C0182E0E80EF11CA6
:101F5000C7010E94051400E027E030E0A7016CE013
:101F600080E80E9456080E940A0481110FC0B70140
:101F7000F60180819181DF91CF911F910F91FF90A8
:101F8000EF90DF90CF90BF900C94770FCB2DD12F97
:101F90008991882361F390E00E944E04F9CF0F935A
:101FA000CF93DF93CDB7DEB72897CDBFDEBF88E0F4
:101FB000EAECF0E2DE01119601900D928A95E1F7CC
:101FC00000E027E030E0AE014F5F5F4F6CE080E85B
:101FD0000E9456082896CDBFDEBFDF91CF910F91AA
:101FE0000895FC01118212820895DC011396ED918F
:101FF000FC911497948115968C9180958923848304
:102000000895DC011396ED91FC9114979481159637
:102010008C91892B84830895FC01638374834583A9
:10202000268380917300211102C08E7F01C08D7FB5
:1020300080937300A381B4819C918581892B8C93BB
:10204000CF010C940110CF93DF93EC010E9401109B
:102050008881811105C0109206081092070804C0FB
:102060001092460810924708DF91CF9108951F9271
:102070000F920FB60F9211240BB60F922F933F932E
:102080004F935F936F937F938F939F93AF93BF9380
:10209000EF93FF9386E693E20E940110FF91EF9188
:1020A000BF91AF919F918F917F916F915F914F9170
:1020B0003F912F910F900BBE0F900FBE0F901F906E
:1020C00018951F920F920FB60F9211240BB60F9214
:1020D0002F933F934F935F936F937F938F939F9330
:1020E000AF93BF93EF93FF9386E693E20E94F50FC1
:1020F000FF91EF91BF91AF919F918F917F916F91E0
:102100005F914F913F912F910F900BBE0F900FBE9B
:102110000F901F9018951F920F920FB60F921124D7
:102120000BB60F922F933F934F935F936F937F93D1
:102130008F939F93AF93BF93EF93FF938FE593E2BA
:102140000E940110FF91EF91BF91AF919F918F91EC
:102150007F916F915F914F913F912F910F900BBEA7
:102160000F900FBE0F901F9018951F920F920FB6F1
:102170000F9211240BB60F922F933F934F935F93BF
:102180006F937F938F939F93AF93BF93EF93FF933F
:102190008FE593E20E94F50FFF91EF91BF91AF9110
:1021A0009F918F917F916F915F914F913F912F916F
:1021B0000F900BBE0F900FBE0F901F901895CF93EE
:1021C000DF93EB01FC01218130E040E050E060E072
:1021D00076E38EE691E00E94B313CA01B9012FEFB6
:1021E0003FEF40E050E00E94B31321153105410557
:1021F000510519F481E090E007C021303105410517
:10220000510529F482E090E0888399832AC0243024
:10221000310530F484E090E08883998383E021C025
:102220002830310530F488E090E08883998384E099
:1022300018C02034310530F480E490E0888399831D
:1022400085E00FC02F3F310509F030F480E091E0C8
:102250008883998386E005C080E094E08883998331
:1022600087E0DF91CF910895CF92DF92EF92FF92B6
:102270000F931F93CF93DF931F921F92CDB7DEB7BB
:102280008C01FC01608319821A82611108C0BE01B1
:102290006F5F7F4F0E94DF108093000807C0BE0170
:1022A0006F5F7F4F0E94DF1080934008F8018081AC
:1022B00029813A81C18040E050E0811114C060E082
:1022C00076E38EE691E00E94B313D12CE12CF12C41
:1022D000CA01B901A70196010E94B31320932608F1
:1022E0003093270813C060E076E38EE691E00E9409
:1022F000B313D12CE12CF12CCA01B901A70196012D
:102300000E94B3132093660830936708F801808118
:10231000811104C083E08093010803C083E08093AF
:102320004108F80180819281409126085091270848
:10233000949F9001959F300D112481110AC0C9010D
:1023400064E670E00E949F13609328087093290848
:1023500009C0C90164E670E00E949F136093680899
:1023600070936908F8018081811104C081E0809335
:10237000060803C081E080934608F801808181113E
:1023800004C081E08093070803C081E08093470880
:10239000F8018081811106C020912608309127081C
:1023A00081E006C0813039F42091660830916708D9
:1023B0002436310508F080E00F900F90DF91CF9127
:1023C0001F910F91FF90EF90DF90CF9008950F93A2
:1023D0001F93CF93DF931F921F92CDB7DEB78C016F
:1023E0004A8369830E9423104A818FEF840F698199
:1023F000F801843680F48FEF860F843660F44283D0
:1024000061836681C8010F900F90DF91CF911F917A
:102410000F910C943411128211820F900F90DF9162
:10242000CF911F910F91089580916E23882309F415
:1024300043C010926E238DE593E20E94550F8823CE
:1024400009F441C089E593E20E94550F8823D9F130
:1024500087E593E20E94550F811135C042E361E0A8
:1024600086E693E20E94E71187E593E20E94550F0A
:10247000882369F089E593E20E94550F882339F09B
:102480008DE693E20E94791342E3682F02C040E098
:1024900060E08FE593E20E94E71185E593E20E94F8
:1024A000550F811122C062ED70E28AE493E20E942E
:1024B000980F81E080936E238FE493EC0197F1F7FE
:1024C00000C0000008958DE593E20E94550F882317
:1024D00031F08BE593E20E94550F811103C040E07B
:1024E00060E0BECF4BE462E0BBCF83E593E20E94A5
:1024F000550F882319F06BED70E2D7CF8AE493E291
:102500000E94CF0FD9CF0E94340187E08093A200B0
:102510000E94230569E473E28AE493E20E948A0F31
:102520008DE693E20E942B1320E040E160E276E02A
:1025300086E693E20E940C1021E040E260E276E041
:102540008FE593E20E940C1028E340E060E08DE507
:1025500093E20E94BA0E20E140E061E08BE593E255
:102560000E94BA0E20E140E063E089E593E20E9418
:10257000BA0E28E340E065E087E593E20E94BA0ED8
:1025800028E140E066E085E593E20E94BA0E20E192
:1025900040E067E083E593E20E94BA0E78940E94DF
:1025A0001412FDCF81E080936F23089510926F2362
:1025B00008958DE693E20E94251386E693E20E9439
:1025C000F10F8FE593E20E94F10F8DE593E20E94F7
:1025D000B80E8BE593E20E94B80E89E593E20E9463
:1025E000B80E87E593E20E94B80E85E593E20E945B
:1025F000B80E83E593E20E94B80E8AE493E20E944B
:10260000890F89E493E20C946E0F89E493E20E94AF
:102610006F0F83E593E20E94B90E85E593E20E9475
:10262000B90E87E593E20E94B90E89E593E20E9414
:10263000B90E8BE593E20E94B90E8DE593E20E94FC
:10264000B90E8DE693E20C942A1310927023109227
:10265000712308950895CF93DF93E0E7F0E082813E
:102660008D7F8283CAECD1E022E0288344E250E0EF
:10267000FA0184911882A0E4B2E01C968C931C9716
:10268000288385E290E0FC01349118821D963C93EA
:102690001D972883FA01449118821C964C931C972D
:1026A0002883FC01849118821D968C931D9781E0EC
:1026B00090968C93909798E091969C93919798E13F
:1026C00011969C93119795E014969C93149790E122
:1026D00012969C93129713961C92139716968C93AE
:1026E000169793E092969C9392978C93DF91CF915B
:1026F0000895209170233091712344E6429FC001D8
:10270000439F900D11246FEF7FE00E949F13862F4F
:1027100008951F920F920FB60F9211248F939F93DB
:10272000809164029091650280937023909371234D
:102730009F918F910F900FBE0F901F901895AA1B1D
:10274000BB1B51E107C0AA1FBB1FA617B70710F09C
:10275000A61BB70B881F991F5A95A9F780959095CE
:10276000BC01CD010895052E97FB1EF400940E9434
:10277000CA1357FD07D00E94DA1307FC03D04EF4AA
:102780000C94CA1350954095309521953F4F4F4F6B
:102790005F4F089590958095709561957F4F8F4F0D
:1027A0009F4F0895EE0FFF1F881F8BBF0790F69174
:1027B000E02D1994A1E21A2EAA1BBB1BFD010DC02E
:1027C000AA1FBB1FEE1FFF1FA217B307E407F507E1
:1027D00020F0A21BB30BE40BF50B661F771F881FBD
:1027E000991F1A9469F760957095809590959B0153
:1027F000AC01BD01CF010895FB01DC0102C00190D5
:102800000D9241505040D8F70895FB01DC01019032
:102810000D920020E1F7089510E0C7EDD0E000E050
:1028200006C0802FFE010E94D2132196011DC83DD3
:0C283000D10780E00807A9F7F894FFCF5B
:10283C007803E301DE01E001FE022702D801EF017B
:10284C00E001000066201A20000022201E200A2031
:10285C00002009024300020100C0320904000001FB
:10286C0002020100052400100104240202052406C2
:10287C00000105240103010705820340001009042F
:10288C000100020A00000007058102400000070554
:10289C000202400000001201000202000040EB03A3
:1028AC0004240001010200010003000000000000EC
:1028BC00000000000000000000000000000000000C
:1028CC0000000000000000004D696E6950726F6AD4
:1028DC0065637420436F6D0053756E546563682097
:1028EC004D65646963616C000403090410002000E9
:1028FC004000800000010002FF0320202020202047
:10290C00200053756E5465636820004D65646963DF
:04291C00616C2000CA
:00000001FF
